{
	"contracts/MarketPlace.sol": {
		"MarketPlace": {
			"abi": [
				{
					"anonymous": false,
					"inputs": [],
					"name": "FinishLotterySession",
					"type": "event"
				},
				{
					"anonymous": false,
					"inputs": [
						{
							"indexed": true,
							"internalType": "address",
							"name": "previousOwner",
							"type": "address"
						},
						{
							"indexed": true,
							"internalType": "address",
							"name": "newOwner",
							"type": "address"
						}
					],
					"name": "OwnershipTransferred",
					"type": "event"
				},
				{
					"anonymous": false,
					"inputs": [
						{
							"indexed": false,
							"internalType": "uint256",
							"name": "minLotteryNumber",
							"type": "uint256"
						},
						{
							"indexed": false,
							"internalType": "uint256",
							"name": "maxLotteryNumber",
							"type": "uint256"
						}
					],
					"name": "StartLotterySession",
					"type": "event"
				},
				{
					"inputs": [],
					"name": "buyTicket",
					"outputs": [],
					"stateMutability": "nonpayable",
					"type": "function"
				},
				{
					"inputs": [],
					"name": "finishLotterySession",
					"outputs": [],
					"stateMutability": "nonpayable",
					"type": "function"
				},
				{
					"inputs": [],
					"name": "owner",
					"outputs": [
						{
							"internalType": "address",
							"name": "",
							"type": "address"
						}
					],
					"stateMutability": "view",
					"type": "function"
				},
				{
					"inputs": [],
					"name": "renounceOwnership",
					"outputs": [],
					"stateMutability": "nonpayable",
					"type": "function"
				},
				{
					"inputs": [
						{
							"internalType": "uint256",
							"name": "_minLotteryNumber",
							"type": "uint256"
						},
						{
							"internalType": "uint256",
							"name": "_maxLotteryNumber",
							"type": "uint256"
						}
					],
					"name": "startLotterySession",
					"outputs": [],
					"stateMutability": "nonpayable",
					"type": "function"
				},
				{
					"inputs": [
						{
							"internalType": "address",
							"name": "newOwner",
							"type": "address"
						}
					],
					"name": "transferOwnership",
					"outputs": [],
					"stateMutability": "nonpayable",
					"type": "function"
				}
			],
			"devdoc": {
				"kind": "dev",
				"methods": {
					"owner()": {
						"details": "Returns the address of the current owner."
					},
					"renounceOwnership()": {
						"details": "Leaves the contract without owner. It will not be possible to call `onlyOwner` functions anymore. Can only be called by the current owner. NOTE: Renouncing ownership will leave the contract without an owner, thereby removing any functionality that is only available to the owner."
					},
					"transferOwnership(address)": {
						"details": "Transfers ownership of the contract to a new account (`newOwner`). Can only be called by the current owner."
					}
				},
				"version": 1
			},
			"evm": {
				"assembly": "    /* \"contracts/MarketPlace.sol\":150:2507  contract MarketPlace is Ownable {\r... */\n  mstore(0x40, 0x80)\n    /* \"contracts/MarketPlace.sol\":262:267  false */\n  0x00\n    /* \"contracts/MarketPlace.sol\":247:267  bool running = false */\n  dup1\n  exp(0x0100, 0x14)\n  dup2\n  sload\n  dup2\n  0xff\n  mul\n  not\n  and\n  swap1\n  dup4\n  iszero\n  iszero\n  mul\n  or\n  swap1\n  sstore\n  pop\n    /* \"contracts/MarketPlace.sol\":150:2507  contract MarketPlace is Ownable {\r... */\n  callvalue\n  dup1\n  iszero\n  tag_1\n  jumpi\n  0x00\n  dup1\n  revert\ntag_1:\n  pop\n    /* \"@openzeppelin/contracts/access/Ownable.sol\":921:953  _transferOwnership(_msgSender()) */\n  tag_4\n    /* \"@openzeppelin/contracts/access/Ownable.sol\":940:952  _msgSender() */\n  tag_5\n    /* \"@openzeppelin/contracts/access/Ownable.sol\":940:950  _msgSender */\n  shl(0x20, tag_6)\n    /* \"@openzeppelin/contracts/access/Ownable.sol\":940:952  _msgSender() */\n  0x20\n  shr\n  jump\t// in\ntag_5:\n    /* \"@openzeppelin/contracts/access/Ownable.sol\":921:939  _transferOwnership */\n  shl(0x20, tag_7)\n    /* \"@openzeppelin/contracts/access/Ownable.sol\":921:953  _transferOwnership(_msgSender()) */\n  0x20\n  shr\n  jump\t// in\ntag_4:\n    /* \"contracts/MarketPlace.sol\":150:2507  contract MarketPlace is Ownable {\r... */\n  jump(tag_8)\n    /* \"@openzeppelin/contracts/utils/Context.sol\":640:736  function _msgSender() internal view virtual returns (address) {... */\ntag_6:\n    /* \"@openzeppelin/contracts/utils/Context.sol\":693:700  address */\n  0x00\n    /* \"@openzeppelin/contracts/utils/Context.sol\":719:729  msg.sender */\n  caller\n    /* \"@openzeppelin/contracts/utils/Context.sol\":712:729  return msg.sender */\n  swap1\n  pop\n    /* \"@openzeppelin/contracts/utils/Context.sol\":640:736  function _msgSender() internal view virtual returns (address) {... */\n  swap1\n  jump\t// out\n    /* \"@openzeppelin/contracts/access/Ownable.sol\":2270:2457  function _transferOwnership(address newOwner) internal virtual {... */\ntag_7:\n    /* \"@openzeppelin/contracts/access/Ownable.sol\":2343:2359  address oldOwner */\n  0x00\n    /* \"@openzeppelin/contracts/access/Ownable.sol\":2362:2368  _owner */\n  dup1\n  0x00\n  swap1\n  sload\n  swap1\n  0x0100\n  exp\n  swap1\n  div\n  0xffffffffffffffffffffffffffffffffffffffff\n  and\n    /* \"@openzeppelin/contracts/access/Ownable.sol\":2343:2368  address oldOwner = _owner */\n  swap1\n  pop\n    /* \"@openzeppelin/contracts/access/Ownable.sol\":2387:2395  newOwner */\n  dup2\n    /* \"@openzeppelin/contracts/access/Ownable.sol\":2378:2384  _owner */\n  0x00\n  dup1\n    /* \"@openzeppelin/contracts/access/Ownable.sol\":2378:2395  _owner = newOwner */\n  0x0100\n  exp\n  dup2\n  sload\n  dup2\n  0xffffffffffffffffffffffffffffffffffffffff\n  mul\n  not\n  and\n  swap1\n  dup4\n  0xffffffffffffffffffffffffffffffffffffffff\n  and\n  mul\n  or\n  swap1\n  sstore\n  pop\n    /* \"@openzeppelin/contracts/access/Ownable.sol\":2441:2449  newOwner */\n  dup2\n    /* \"@openzeppelin/contracts/access/Ownable.sol\":2410:2450  OwnershipTransferred(oldOwner, newOwner) */\n  0xffffffffffffffffffffffffffffffffffffffff\n  and\n    /* \"@openzeppelin/contracts/access/Ownable.sol\":2431:2439  oldOwner */\n  dup2\n    /* \"@openzeppelin/contracts/access/Ownable.sol\":2410:2450  OwnershipTransferred(oldOwner, newOwner) */\n  0xffffffffffffffffffffffffffffffffffffffff\n  and\n  0x8be0079c531659141344cd1fd0a4f28419497f9722a3daafe3b4186f6b6457e0\n  mload(0x40)\n  mload(0x40)\n  dup1\n  swap2\n  sub\n  swap1\n  log3\n    /* \"@openzeppelin/contracts/access/Ownable.sol\":2333:2457  {... */\n  pop\n    /* \"@openzeppelin/contracts/access/Ownable.sol\":2270:2457  function _transferOwnership(address newOwner) internal virtual {... */\n  pop\n  jump\t// out\n    /* \"contracts/MarketPlace.sol\":150:2507  contract MarketPlace is Ownable {\r... */\ntag_8:\n  dataSize(sub_0)\n  dup1\n  dataOffset(sub_0)\n  0x00\n  codecopy\n  0x00\n  return\nstop\n\nsub_0: assembly {\n        /* \"contracts/MarketPlace.sol\":150:2507  contract MarketPlace is Ownable {\r... */\n      mstore(0x40, 0x80)\n      callvalue\n      dup1\n      iszero\n      tag_1\n      jumpi\n      0x00\n      dup1\n      revert\n    tag_1:\n      pop\n      jumpi(tag_2, lt(calldatasize, 0x04))\n      shr(0xe0, calldataload(0x00))\n      dup1\n      0x313c1376\n      eq\n      tag_3\n      jumpi\n      dup1\n      0x715018a6\n      eq\n      tag_4\n      jumpi\n      dup1\n      0x8da5cb5b\n      eq\n      tag_5\n      jumpi\n      dup1\n      0x99df1974\n      eq\n      tag_6\n      jumpi\n      dup1\n      0xedca914c\n      eq\n      tag_7\n      jumpi\n      dup1\n      0xf2fde38b\n      eq\n      tag_8\n      jumpi\n    tag_2:\n      0x00\n      dup1\n      revert\n        /* \"contracts/MarketPlace.sol\":2148:2289  function finishLotterySession() public  onlyOwner {\r... */\n    tag_3:\n      tag_9\n      tag_10\n      jump\t// in\n    tag_9:\n      stop\n        /* \"@openzeppelin/contracts/access/Ownable.sol\":1668:1769  function renounceOwnership() public virtual onlyOwner {... */\n    tag_4:\n      tag_11\n      tag_12\n      jump\t// in\n    tag_11:\n      stop\n        /* \"@openzeppelin/contracts/access/Ownable.sol\":1036:1121  function owner() public view virtual returns (address) {... */\n    tag_5:\n      tag_13\n      tag_14\n      jump\t// in\n    tag_13:\n      mload(0x40)\n      tag_15\n      swap2\n      swap1\n      tag_16\n      jump\t// in\n    tag_15:\n      mload(0x40)\n      dup1\n      swap2\n      sub\n      swap1\n      return\n        /* \"contracts/MarketPlace.sol\":1303:1665  function startLotterySession(uint256 _minLotteryNumber, uint256 _maxLotteryNumber) public onlyOwner {\r... */\n    tag_6:\n      tag_17\n      0x04\n      dup1\n      calldatasize\n      sub\n      dup2\n      add\n      swap1\n      tag_18\n      swap2\n      swap1\n      tag_19\n      jump\t// in\n    tag_18:\n      tag_20\n      jump\t// in\n    tag_17:\n      stop\n        /* \"contracts/MarketPlace.sol\":728:823  function buyTicket() public {\r... */\n    tag_7:\n      tag_21\n      tag_22\n      jump\t// in\n    tag_21:\n      stop\n        /* \"@openzeppelin/contracts/access/Ownable.sol\":1918:2116  function transferOwnership(address newOwner) public virtual onlyOwner {... */\n    tag_8:\n      tag_23\n      0x04\n      dup1\n      calldatasize\n      sub\n      dup2\n      add\n      swap1\n      tag_24\n      swap2\n      swap1\n      tag_25\n      jump\t// in\n    tag_24:\n      tag_26\n      jump\t// in\n    tag_23:\n      stop\n        /* \"contracts/MarketPlace.sol\":2148:2289  function finishLotterySession() public  onlyOwner {\r... */\n    tag_10:\n        /* \"@openzeppelin/contracts/access/Ownable.sol\":1259:1271  _msgSender() */\n      tag_28\n        /* \"@openzeppelin/contracts/access/Ownable.sol\":1259:1269  _msgSender */\n      tag_29\n        /* \"@openzeppelin/contracts/access/Ownable.sol\":1259:1271  _msgSender() */\n      jump\t// in\n    tag_28:\n        /* \"@openzeppelin/contracts/access/Ownable.sol\":1248:1271  owner() == _msgSender() */\n      0xffffffffffffffffffffffffffffffffffffffff\n      and\n        /* \"@openzeppelin/contracts/access/Ownable.sol\":1248:1255  owner() */\n      tag_30\n        /* \"@openzeppelin/contracts/access/Ownable.sol\":1248:1253  owner */\n      tag_14\n        /* \"@openzeppelin/contracts/access/Ownable.sol\":1248:1255  owner() */\n      jump\t// in\n    tag_30:\n        /* \"@openzeppelin/contracts/access/Ownable.sol\":1248:1271  owner() == _msgSender() */\n      0xffffffffffffffffffffffffffffffffffffffff\n      and\n      eq\n        /* \"@openzeppelin/contracts/access/Ownable.sol\":1240:1308  require(owner() == _msgSender(), \"Ownable: caller is not the owner\") */\n      tag_31\n      jumpi\n      mload(0x40)\n      0x08c379a000000000000000000000000000000000000000000000000000000000\n      dup2\n      mstore\n      0x04\n      add\n      tag_32\n      swap1\n      tag_33\n      jump\t// in\n    tag_32:\n      mload(0x40)\n      dup1\n      swap2\n      sub\n      swap1\n      revert\n    tag_31:\n        /* \"contracts/MarketPlace.sol\":2217:2224  running */\n      0x00\n      0x14\n      swap1\n      sload\n      swap1\n      0x0100\n      exp\n      swap1\n      div\n      0xff\n      and\n        /* \"contracts/MarketPlace.sol\":2209:2255  require(running, \"Lottery session was ended.\") */\n      tag_35\n      jumpi\n      mload(0x40)\n      0x08c379a000000000000000000000000000000000000000000000000000000000\n      dup2\n      mstore\n      0x04\n      add\n      tag_36\n      swap1\n      tag_37\n      jump\t// in\n    tag_36:\n      mload(0x40)\n      dup1\n      swap2\n      sub\n      swap1\n      revert\n    tag_35:\n        /* \"contracts/MarketPlace.sol\":2276:2281  false */\n      0x00\n        /* \"contracts/MarketPlace.sol\":2266:2273  running */\n      dup1\n      0x14\n        /* \"contracts/MarketPlace.sol\":2266:2281  running = false */\n      0x0100\n      exp\n      dup2\n      sload\n      dup2\n      0xff\n      mul\n      not\n      and\n      swap1\n      dup4\n      iszero\n      iszero\n      mul\n      or\n      swap1\n      sstore\n      pop\n        /* \"contracts/MarketPlace.sol\":2148:2289  function finishLotterySession() public  onlyOwner {\r... */\n      jump\t// out\n        /* \"@openzeppelin/contracts/access/Ownable.sol\":1668:1769  function renounceOwnership() public virtual onlyOwner {... */\n    tag_12:\n        /* \"@openzeppelin/contracts/access/Ownable.sol\":1259:1271  _msgSender() */\n      tag_39\n        /* \"@openzeppelin/contracts/access/Ownable.sol\":1259:1269  _msgSender */\n      tag_29\n        /* \"@openzeppelin/contracts/access/Ownable.sol\":1259:1271  _msgSender() */\n      jump\t// in\n    tag_39:\n        /* \"@openzeppelin/contracts/access/Ownable.sol\":1248:1271  owner() == _msgSender() */\n      0xffffffffffffffffffffffffffffffffffffffff\n      and\n        /* \"@openzeppelin/contracts/access/Ownable.sol\":1248:1255  owner() */\n      tag_40\n        /* \"@openzeppelin/contracts/access/Ownable.sol\":1248:1253  owner */\n      tag_14\n        /* \"@openzeppelin/contracts/access/Ownable.sol\":1248:1255  owner() */\n      jump\t// in\n    tag_40:\n        /* \"@openzeppelin/contracts/access/Ownable.sol\":1248:1271  owner() == _msgSender() */\n      0xffffffffffffffffffffffffffffffffffffffff\n      and\n      eq\n        /* \"@openzeppelin/contracts/access/Ownable.sol\":1240:1308  require(owner() == _msgSender(), \"Ownable: caller is not the owner\") */\n      tag_41\n      jumpi\n      mload(0x40)\n      0x08c379a000000000000000000000000000000000000000000000000000000000\n      dup2\n      mstore\n      0x04\n      add\n      tag_42\n      swap1\n      tag_33\n      jump\t// in\n    tag_42:\n      mload(0x40)\n      dup1\n      swap2\n      sub\n      swap1\n      revert\n    tag_41:\n        /* \"@openzeppelin/contracts/access/Ownable.sol\":1732:1762  _transferOwnership(address(0)) */\n      tag_44\n        /* \"@openzeppelin/contracts/access/Ownable.sol\":1759:1760  0 */\n      0x00\n        /* \"@openzeppelin/contracts/access/Ownable.sol\":1732:1750  _transferOwnership */\n      tag_45\n        /* \"@openzeppelin/contracts/access/Ownable.sol\":1732:1762  _transferOwnership(address(0)) */\n      jump\t// in\n    tag_44:\n        /* \"@openzeppelin/contracts/access/Ownable.sol\":1668:1769  function renounceOwnership() public virtual onlyOwner {... */\n      jump\t// out\n        /* \"@openzeppelin/contracts/access/Ownable.sol\":1036:1121  function owner() public view virtual returns (address) {... */\n    tag_14:\n        /* \"@openzeppelin/contracts/access/Ownable.sol\":1082:1089  address */\n      0x00\n        /* \"@openzeppelin/contracts/access/Ownable.sol\":1108:1114  _owner */\n      dup1\n      0x00\n      swap1\n      sload\n      swap1\n      0x0100\n      exp\n      swap1\n      div\n      0xffffffffffffffffffffffffffffffffffffffff\n      and\n        /* \"@openzeppelin/contracts/access/Ownable.sol\":1101:1114  return _owner */\n      swap1\n      pop\n        /* \"@openzeppelin/contracts/access/Ownable.sol\":1036:1121  function owner() public view virtual returns (address) {... */\n      swap1\n      jump\t// out\n        /* \"contracts/MarketPlace.sol\":1303:1665  function startLotterySession(uint256 _minLotteryNumber, uint256 _maxLotteryNumber) public onlyOwner {\r... */\n    tag_20:\n        /* \"@openzeppelin/contracts/access/Ownable.sol\":1259:1271  _msgSender() */\n      tag_48\n        /* \"@openzeppelin/contracts/access/Ownable.sol\":1259:1269  _msgSender */\n      tag_29\n        /* \"@openzeppelin/contracts/access/Ownable.sol\":1259:1271  _msgSender() */\n      jump\t// in\n    tag_48:\n        /* \"@openzeppelin/contracts/access/Ownable.sol\":1248:1271  owner() == _msgSender() */\n      0xffffffffffffffffffffffffffffffffffffffff\n      and\n        /* \"@openzeppelin/contracts/access/Ownable.sol\":1248:1255  owner() */\n      tag_49\n        /* \"@openzeppelin/contracts/access/Ownable.sol\":1248:1253  owner */\n      tag_14\n        /* \"@openzeppelin/contracts/access/Ownable.sol\":1248:1255  owner() */\n      jump\t// in\n    tag_49:\n        /* \"@openzeppelin/contracts/access/Ownable.sol\":1248:1271  owner() == _msgSender() */\n      0xffffffffffffffffffffffffffffffffffffffff\n      and\n      eq\n        /* \"@openzeppelin/contracts/access/Ownable.sol\":1240:1308  require(owner() == _msgSender(), \"Ownable: caller is not the owner\") */\n      tag_50\n      jumpi\n      mload(0x40)\n      0x08c379a000000000000000000000000000000000000000000000000000000000\n      dup2\n      mstore\n      0x04\n      add\n      tag_51\n      swap1\n      tag_33\n      jump\t// in\n    tag_51:\n      mload(0x40)\n      dup1\n      swap2\n      sub\n      swap1\n      revert\n    tag_50:\n        /* \"contracts/MarketPlace.sol\":1422:1429  running */\n      0x00\n      0x14\n      swap1\n      sload\n      swap1\n      0x0100\n      exp\n      swap1\n      div\n      0xff\n      and\n        /* \"contracts/MarketPlace.sol\":1414:1461  require(running, \"Lottery session is running.\") */\n      tag_53\n      jumpi\n      mload(0x40)\n      0x08c379a000000000000000000000000000000000000000000000000000000000\n      dup2\n      mstore\n      0x04\n      add\n      tag_54\n      swap1\n      tag_55\n      jump\t// in\n    tag_54:\n      mload(0x40)\n      dup1\n      swap2\n      sub\n      swap1\n      revert\n    tag_53:\n        /* \"contracts/MarketPlace.sol\":1491:1508  _minLotteryNumber */\n      dup2\n        /* \"contracts/MarketPlace.sol\":1472:1488  minLotteryNumber */\n      0x06\n        /* \"contracts/MarketPlace.sol\":1472:1508  minLotteryNumber = _minLotteryNumber */\n      dup2\n      swap1\n      sstore\n      pop\n        /* \"contracts/MarketPlace.sol\":1538:1555  _maxLotteryNumber */\n      dup1\n        /* \"contracts/MarketPlace.sol\":1519:1535  maxLotteryNumber */\n      0x07\n        /* \"contracts/MarketPlace.sol\":1519:1555  maxLotteryNumber = _maxLotteryNumber */\n      dup2\n      swap1\n      sstore\n      pop\n        /* \"contracts/MarketPlace.sol\":1580:1581  0 */\n      0x00\n        /* \"contracts/MarketPlace.sol\":1566:1577  luckyNumber */\n      0x05\n        /* \"contracts/MarketPlace.sol\":1566:1581  luckyNumber = 0 */\n      dup2\n      swap1\n      sstore\n      pop\n        /* \"contracts/MarketPlace.sol\":1592:1606  _clearBuyers() */\n      tag_56\n        /* \"contracts/MarketPlace.sol\":1592:1604  _clearBuyers */\n      tag_57\n        /* \"contracts/MarketPlace.sol\":1592:1606  _clearBuyers() */\n      jump\t// in\n    tag_56:\n        /* \"contracts/MarketPlace.sol\":1617:1632  _clearNumbers() */\n      tag_58\n        /* \"contracts/MarketPlace.sol\":1617:1630  _clearNumbers */\n      tag_59\n        /* \"contracts/MarketPlace.sol\":1617:1632  _clearNumbers() */\n      jump\t// in\n    tag_58:\n        /* \"contracts/MarketPlace.sol\":1653:1657  true */\n      0x01\n        /* \"contracts/MarketPlace.sol\":1643:1650  running */\n      0x00\n      0x14\n        /* \"contracts/MarketPlace.sol\":1643:1657  running = true */\n      0x0100\n      exp\n      dup2\n      sload\n      dup2\n      0xff\n      mul\n      not\n      and\n      swap1\n      dup4\n      iszero\n      iszero\n      mul\n      or\n      swap1\n      sstore\n      pop\n        /* \"contracts/MarketPlace.sol\":1303:1665  function startLotterySession(uint256 _minLotteryNumber, uint256 _maxLotteryNumber) public onlyOwner {\r... */\n      pop\n      pop\n      jump\t// out\n        /* \"contracts/MarketPlace.sol\":728:823  function buyTicket() public {\r... */\n    tag_22:\n        /* \"contracts/MarketPlace.sol\":767:778  _pay(price) */\n      tag_61\n        /* \"contracts/MarketPlace.sol\":772:777  price */\n      sload(0x08)\n        /* \"contracts/MarketPlace.sol\":767:771  _pay */\n      tag_62\n        /* \"contracts/MarketPlace.sol\":767:778  _pay(price) */\n      jump\t// in\n    tag_61:\n        /* \"contracts/MarketPlace.sol\":789:815  _burnToken(price * 1 / 10) */\n      tag_63\n        /* \"contracts/MarketPlace.sol\":812:814  10 */\n      0x0a\n        /* \"contracts/MarketPlace.sol\":808:809  1 */\n      0x01\n        /* \"contracts/MarketPlace.sol\":800:805  price */\n      sload(0x08)\n        /* \"contracts/MarketPlace.sol\":800:809  price * 1 */\n      tag_64\n      swap2\n      swap1\n      tag_65\n      jump\t// in\n    tag_64:\n        /* \"contracts/MarketPlace.sol\":800:814  price * 1 / 10 */\n      tag_66\n      swap2\n      swap1\n      tag_67\n      jump\t// in\n    tag_66:\n        /* \"contracts/MarketPlace.sol\":789:799  _burnToken */\n      tag_68\n        /* \"contracts/MarketPlace.sol\":789:815  _burnToken(price * 1 / 10) */\n      jump\t// in\n    tag_63:\n        /* \"contracts/MarketPlace.sol\":728:823  function buyTicket() public {\r... */\n      jump\t// out\n        /* \"@openzeppelin/contracts/access/Ownable.sol\":1918:2116  function transferOwnership(address newOwner) public virtual onlyOwner {... */\n    tag_26:\n        /* \"@openzeppelin/contracts/access/Ownable.sol\":1259:1271  _msgSender() */\n      tag_70\n        /* \"@openzeppelin/contracts/access/Ownable.sol\":1259:1269  _msgSender */\n      tag_29\n        /* \"@openzeppelin/contracts/access/Ownable.sol\":1259:1271  _msgSender() */\n      jump\t// in\n    tag_70:\n        /* \"@openzeppelin/contracts/access/Ownable.sol\":1248:1271  owner() == _msgSender() */\n      0xffffffffffffffffffffffffffffffffffffffff\n      and\n        /* \"@openzeppelin/contracts/access/Ownable.sol\":1248:1255  owner() */\n      tag_71\n        /* \"@openzeppelin/contracts/access/Ownable.sol\":1248:1253  owner */\n      tag_14\n        /* \"@openzeppelin/contracts/access/Ownable.sol\":1248:1255  owner() */\n      jump\t// in\n    tag_71:\n        /* \"@openzeppelin/contracts/access/Ownable.sol\":1248:1271  owner() == _msgSender() */\n      0xffffffffffffffffffffffffffffffffffffffff\n      and\n      eq\n        /* \"@openzeppelin/contracts/access/Ownable.sol\":1240:1308  require(owner() == _msgSender(), \"Ownable: caller is not the owner\") */\n      tag_72\n      jumpi\n      mload(0x40)\n      0x08c379a000000000000000000000000000000000000000000000000000000000\n      dup2\n      mstore\n      0x04\n      add\n      tag_73\n      swap1\n      tag_33\n      jump\t// in\n    tag_73:\n      mload(0x40)\n      dup1\n      swap2\n      sub\n      swap1\n      revert\n    tag_72:\n        /* \"@openzeppelin/contracts/access/Ownable.sol\":2026:2027  0 */\n      0x00\n        /* \"@openzeppelin/contracts/access/Ownable.sol\":2006:2028  newOwner != address(0) */\n      0xffffffffffffffffffffffffffffffffffffffff\n      and\n        /* \"@openzeppelin/contracts/access/Ownable.sol\":2006:2014  newOwner */\n      dup2\n        /* \"@openzeppelin/contracts/access/Ownable.sol\":2006:2028  newOwner != address(0) */\n      0xffffffffffffffffffffffffffffffffffffffff\n      and\n      eq\n      iszero\n        /* \"@openzeppelin/contracts/access/Ownable.sol\":1998:2071  require(newOwner != address(0), \"Ownable: new owner is the zero address\") */\n      tag_75\n      jumpi\n      mload(0x40)\n      0x08c379a000000000000000000000000000000000000000000000000000000000\n      dup2\n      mstore\n      0x04\n      add\n      tag_76\n      swap1\n      tag_77\n      jump\t// in\n    tag_76:\n      mload(0x40)\n      dup1\n      swap2\n      sub\n      swap1\n      revert\n    tag_75:\n        /* \"@openzeppelin/contracts/access/Ownable.sol\":2081:2109  _transferOwnership(newOwner) */\n      tag_78\n        /* \"@openzeppelin/contracts/access/Ownable.sol\":2100:2108  newOwner */\n      dup2\n        /* \"@openzeppelin/contracts/access/Ownable.sol\":2081:2099  _transferOwnership */\n      tag_45\n        /* \"@openzeppelin/contracts/access/Ownable.sol\":2081:2109  _transferOwnership(newOwner) */\n      jump\t// in\n    tag_78:\n        /* \"@openzeppelin/contracts/access/Ownable.sol\":1918:2116  function transferOwnership(address newOwner) public virtual onlyOwner {... */\n      pop\n      jump\t// out\n        /* \"@openzeppelin/contracts/utils/Context.sol\":640:736  function _msgSender() internal view virtual returns (address) {... */\n    tag_29:\n        /* \"@openzeppelin/contracts/utils/Context.sol\":693:700  address */\n      0x00\n        /* \"@openzeppelin/contracts/utils/Context.sol\":719:729  msg.sender */\n      caller\n        /* \"@openzeppelin/contracts/utils/Context.sol\":712:729  return msg.sender */\n      swap1\n      pop\n        /* \"@openzeppelin/contracts/utils/Context.sol\":640:736  function _msgSender() internal view virtual returns (address) {... */\n      swap1\n      jump\t// out\n        /* \"@openzeppelin/contracts/access/Ownable.sol\":2270:2457  function _transferOwnership(address newOwner) internal virtual {... */\n    tag_45:\n        /* \"@openzeppelin/contracts/access/Ownable.sol\":2343:2359  address oldOwner */\n      0x00\n        /* \"@openzeppelin/contracts/access/Ownable.sol\":2362:2368  _owner */\n      dup1\n      0x00\n      swap1\n      sload\n      swap1\n      0x0100\n      exp\n      swap1\n      div\n      0xffffffffffffffffffffffffffffffffffffffff\n      and\n        /* \"@openzeppelin/contracts/access/Ownable.sol\":2343:2368  address oldOwner = _owner */\n      swap1\n      pop\n        /* \"@openzeppelin/contracts/access/Ownable.sol\":2387:2395  newOwner */\n      dup2\n        /* \"@openzeppelin/contracts/access/Ownable.sol\":2378:2384  _owner */\n      0x00\n      dup1\n        /* \"@openzeppelin/contracts/access/Ownable.sol\":2378:2395  _owner = newOwner */\n      0x0100\n      exp\n      dup2\n      sload\n      dup2\n      0xffffffffffffffffffffffffffffffffffffffff\n      mul\n      not\n      and\n      swap1\n      dup4\n      0xffffffffffffffffffffffffffffffffffffffff\n      and\n      mul\n      or\n      swap1\n      sstore\n      pop\n        /* \"@openzeppelin/contracts/access/Ownable.sol\":2441:2449  newOwner */\n      dup2\n        /* \"@openzeppelin/contracts/access/Ownable.sol\":2410:2450  OwnershipTransferred(oldOwner, newOwner) */\n      0xffffffffffffffffffffffffffffffffffffffff\n      and\n        /* \"@openzeppelin/contracts/access/Ownable.sol\":2431:2439  oldOwner */\n      dup2\n        /* \"@openzeppelin/contracts/access/Ownable.sol\":2410:2450  OwnershipTransferred(oldOwner, newOwner) */\n      0xffffffffffffffffffffffffffffffffffffffff\n      and\n      0x8be0079c531659141344cd1fd0a4f28419497f9722a3daafe3b4186f6b6457e0\n      mload(0x40)\n      mload(0x40)\n      dup1\n      swap2\n      sub\n      swap1\n      log3\n        /* \"@openzeppelin/contracts/access/Ownable.sol\":2333:2457  {... */\n      pop\n        /* \"@openzeppelin/contracts/access/Ownable.sol\":2270:2457  function _transferOwnership(address newOwner) internal virtual {... */\n      pop\n      jump\t// out\n        /* \"contracts/MarketPlace.sol\":1673:1913  function _clearBuyers() internal {\r... */\n    tag_57:\n        /* \"contracts/MarketPlace.sol\":1721:1730  uint256 i */\n      0x00\n        /* \"contracts/MarketPlace.sol\":1717:1875  for(uint256 i = 0; i < buyerAddesses.length; i++) {\r... */\n    tag_82:\n        /* \"contracts/MarketPlace.sol\":1740:1753  buyerAddesses */\n      0x01\n        /* \"contracts/MarketPlace.sol\":1740:1760  buyerAddesses.length */\n      dup1\n      sload\n      swap1\n      pop\n        /* \"contracts/MarketPlace.sol\":1736:1737  i */\n      dup2\n        /* \"contracts/MarketPlace.sol\":1736:1760  i < buyerAddesses.length */\n      lt\n        /* \"contracts/MarketPlace.sol\":1717:1875  for(uint256 i = 0; i < buyerAddesses.length; i++) {\r... */\n      iszero\n      tag_83\n      jumpi\n        /* \"contracts/MarketPlace.sol\":1782:1802  address buyerAddress */\n      0x00\n        /* \"contracts/MarketPlace.sol\":1805:1818  buyerAddesses */\n      0x01\n        /* \"contracts/MarketPlace.sol\":1819:1820  i */\n      dup3\n        /* \"contracts/MarketPlace.sol\":1805:1821  buyerAddesses[i] */\n      dup2\n      sload\n      dup2\n      lt\n      tag_85\n      jumpi\n      tag_86\n      tag_87\n      jump\t// in\n    tag_86:\n    tag_85:\n      swap1\n      0x00\n      mstore\n      keccak256(0x00, 0x20)\n      add\n      0x00\n      swap1\n      sload\n      swap1\n      0x0100\n      exp\n      swap1\n      div\n      0xffffffffffffffffffffffffffffffffffffffff\n      and\n        /* \"contracts/MarketPlace.sol\":1782:1821  address buyerAddress = buyerAddesses[i] */\n      swap1\n      pop\n        /* \"contracts/MarketPlace.sol\":1843:1849  buyers */\n      0x02\n        /* \"contracts/MarketPlace.sol\":1843:1863  buyers[buyerAddress] */\n      0x00\n        /* \"contracts/MarketPlace.sol\":1850:1862  buyerAddress */\n      dup3\n        /* \"contracts/MarketPlace.sol\":1843:1863  buyers[buyerAddress] */\n      0xffffffffffffffffffffffffffffffffffffffff\n      and\n      0xffffffffffffffffffffffffffffffffffffffff\n      and\n      dup2\n      mstore\n      0x20\n      add\n      swap1\n      dup2\n      mstore\n      0x20\n      add\n      0x00\n      keccak256\n      0x00\n        /* \"contracts/MarketPlace.sol\":1836:1863  delete buyers[buyerAddress] */\n      tag_89\n      swap2\n      swap1\n      tag_90\n      jump\t// in\n    tag_89:\n        /* \"contracts/MarketPlace.sol\":1767:1875  {\r... */\n      pop\n        /* \"contracts/MarketPlace.sol\":1762:1765  i++ */\n      dup1\n      dup1\n      tag_91\n      swap1\n      tag_92\n      jump\t// in\n    tag_91:\n      swap2\n      pop\n      pop\n        /* \"contracts/MarketPlace.sol\":1717:1875  for(uint256 i = 0; i < buyerAddesses.length; i++) {\r... */\n      jump(tag_82)\n    tag_83:\n      pop\n        /* \"contracts/MarketPlace.sol\":1892:1905  buyerAddesses */\n      0x01\n      0x00\n        /* \"contracts/MarketPlace.sol\":1885:1905  delete buyerAddesses */\n      tag_93\n      swap2\n      swap1\n      tag_94\n      jump\t// in\n    tag_93:\n        /* \"contracts/MarketPlace.sol\":1673:1913  function _clearBuyers() internal {\r... */\n      jump\t// out\n        /* \"contracts/MarketPlace.sol\":1921:2140  function _clearNumbers() internal {\r... */\n    tag_59:\n        /* \"contracts/MarketPlace.sol\":1970:1979  uint256 i */\n      0x00\n        /* \"contracts/MarketPlace.sol\":1966:2108  for(uint256 i = 0; i < numbers.length; i++) {\r... */\n    tag_96:\n        /* \"contracts/MarketPlace.sol\":1989:1996  numbers */\n      0x03\n        /* \"contracts/MarketPlace.sol\":1989:2003  numbers.length */\n      dup1\n      sload\n      swap1\n      pop\n        /* \"contracts/MarketPlace.sol\":1985:1986  i */\n      dup2\n        /* \"contracts/MarketPlace.sol\":1985:2003  i < numbers.length */\n      lt\n        /* \"contracts/MarketPlace.sol\":1966:2108  for(uint256 i = 0; i < numbers.length; i++) {\r... */\n      iszero\n      tag_97\n      jumpi\n        /* \"contracts/MarketPlace.sol\":2025:2039  uint256 number */\n      0x00\n        /* \"contracts/MarketPlace.sol\":2042:2049  numbers */\n      0x03\n        /* \"contracts/MarketPlace.sol\":2050:2051  i */\n      dup3\n        /* \"contracts/MarketPlace.sol\":2042:2052  numbers[i] */\n      dup2\n      sload\n      dup2\n      lt\n      tag_99\n      jumpi\n      tag_100\n      tag_87\n      jump\t// in\n    tag_100:\n    tag_99:\n      swap1\n      0x00\n      mstore\n      keccak256(0x00, 0x20)\n      add\n      sload\n        /* \"contracts/MarketPlace.sol\":2025:2052  uint256 number = numbers[i] */\n      swap1\n      pop\n        /* \"contracts/MarketPlace.sol\":2074:2088  lotteryNumbers */\n      0x04\n        /* \"contracts/MarketPlace.sol\":2074:2096  lotteryNumbers[number] */\n      0x00\n        /* \"contracts/MarketPlace.sol\":2089:2095  number */\n      dup3\n        /* \"contracts/MarketPlace.sol\":2074:2096  lotteryNumbers[number] */\n      dup2\n      mstore\n      0x20\n      add\n      swap1\n      dup2\n      mstore\n      0x20\n      add\n      0x00\n      keccak256\n      0x00\n        /* \"contracts/MarketPlace.sol\":2067:2096  delete lotteryNumbers[number] */\n      tag_102\n      swap2\n      swap1\n      tag_94\n      jump\t// in\n    tag_102:\n        /* \"contracts/MarketPlace.sol\":2010:2108  {\r... */\n      pop\n        /* \"contracts/MarketPlace.sol\":2005:2008  i++ */\n      dup1\n      dup1\n      tag_103\n      swap1\n      tag_92\n      jump\t// in\n    tag_103:\n      swap2\n      pop\n      pop\n        /* \"contracts/MarketPlace.sol\":1966:2108  for(uint256 i = 0; i < numbers.length; i++) {\r... */\n      jump(tag_96)\n    tag_97:\n      pop\n        /* \"contracts/MarketPlace.sol\":2125:2132  numbers */\n      0x03\n      0x00\n        /* \"contracts/MarketPlace.sol\":2118:2132  delete numbers */\n      tag_104\n      swap2\n      swap1\n      tag_105\n      jump\t// in\n    tag_104:\n        /* \"contracts/MarketPlace.sol\":1921:2140  function _clearNumbers() internal {\r... */\n      jump\t// out\n        /* \"contracts/MarketPlace.sol\":831:1295  function _pay(uint256 _amount) internal {\r... */\n    tag_62:\n        /* \"contracts/MarketPlace.sol\":883:895  bool success */\n      0x00\n        /* \"contracts/MarketPlace.sol\":238:239  0 */\n      dup1\n        /* \"contracts/MarketPlace.sol\":901:927  LOTTERY_TOKEN_ADDRESS.call */\n      0xffffffffffffffffffffffffffffffffffffffff\n      and\n        /* \"contracts/MarketPlace.sol\":989:993  this */\n      address\n        /* \"contracts/MarketPlace.sol\":996:1003  _amount */\n      dup4\n        /* \"contracts/MarketPlace.sol\":928:1004  abi.encodeWithSignature(\"approve(address, uint256)\", address(this), _amount) */\n      add(0x24, mload(0x40))\n      tag_107\n      swap3\n      swap2\n      swap1\n      tag_108\n      jump\t// in\n    tag_107:\n      mload(0x40)\n      0x20\n      dup2\n      dup4\n      sub\n      sub\n      dup2\n      mstore\n      swap1\n      0x40\n      mstore\n      and(not(0xffffffffffffffffffffffffffffffffffffffffffffffffffffffff), 0x8b069f2a00000000000000000000000000000000000000000000000000000000)\n      0x20\n      dup3\n      add\n      dup1\n      mload\n      0xffffffffffffffffffffffffffffffffffffffffffffffffffffffff\n      dup4\n      dup2\n      dup4\n      and\n      or\n      dup4\n      mstore\n      pop\n      pop\n      pop\n      pop\n        /* \"contracts/MarketPlace.sol\":901:1005  LOTTERY_TOKEN_ADDRESS.call(abi.encodeWithSignature(\"approve(address, uint256)\", address(this), _amount)) */\n      mload(0x40)\n      tag_109\n      swap2\n      swap1\n      tag_110\n      jump\t// in\n    tag_109:\n      0x00\n      mload(0x40)\n      dup1\n      dup4\n      sub\n      dup2\n      0x00\n      dup7\n      gas\n      call\n      swap2\n      pop\n      pop\n      returndatasize\n      dup1\n      0x00\n      dup2\n      eq\n      tag_113\n      jumpi\n      mload(0x40)\n      swap2\n      pop\n      and(add(returndatasize, 0x3f), not(0x1f))\n      dup3\n      add\n      0x40\n      mstore\n      returndatasize\n      dup3\n      mstore\n      returndatasize\n      0x00\n      0x20\n      dup5\n      add\n      returndatacopy\n      jump(tag_112)\n    tag_113:\n      0x60\n      swap2\n      pop\n    tag_112:\n      pop\n        /* \"contracts/MarketPlace.sol\":882:1005  (bool success, ) = LOTTERY_TOKEN_ADDRESS.call(abi.encodeWithSignature(\"approve(address, uint256)\", address(this), _amount)) */\n      pop\n      swap1\n      pop\n        /* \"contracts/MarketPlace.sol\":1024:1031  success */\n      dup1\n        /* \"contracts/MarketPlace.sol\":1016:1065  require(success, \"User don't allow to withdraw.\") */\n      tag_114\n      jumpi\n      mload(0x40)\n      0x08c379a000000000000000000000000000000000000000000000000000000000\n      dup2\n      mstore\n      0x04\n      add\n      tag_115\n      swap1\n      tag_116\n      jump\t// in\n    tag_115:\n      mload(0x40)\n      dup1\n      swap2\n      sub\n      swap1\n      revert\n    tag_114:\n        /* \"contracts/MarketPlace.sol\":1077:1090  bool success1 */\n      0x00\n        /* \"contracts/MarketPlace.sol\":238:239  0 */\n      dup1\n        /* \"contracts/MarketPlace.sol\":1096:1122  LOTTERY_TOKEN_ADDRESS.call */\n      0xffffffffffffffffffffffffffffffffffffffff\n      and\n        /* \"contracts/MarketPlace.sol\":1190:1200  msg.sender */\n      caller\n        /* \"contracts/MarketPlace.sol\":1210:1214  this */\n      address\n        /* \"contracts/MarketPlace.sol\":1231:1233  10 */\n      0x0a\n        /* \"contracts/MarketPlace.sol\":1227:1228  9 */\n      0x09\n        /* \"contracts/MarketPlace.sol\":1217:1224  _amount */\n      dup8\n        /* \"contracts/MarketPlace.sol\":1217:1228  _amount * 9 */\n      tag_117\n      swap2\n      swap1\n      tag_65\n      jump\t// in\n    tag_117:\n        /* \"contracts/MarketPlace.sol\":1217:1233  _amount * 9 / 10 */\n      tag_118\n      swap2\n      swap1\n      tag_67\n      jump\t// in\n    tag_118:\n        /* \"contracts/MarketPlace.sol\":1123:1234  abi.encodeWithSignature(\"transferFrom(address, address, uint256)\", msg.sender, address(this), _amount * 9 / 10) */\n      add(0x24, mload(0x40))\n      tag_119\n      swap4\n      swap3\n      swap2\n      swap1\n      tag_120\n      jump\t// in\n    tag_119:\n      mload(0x40)\n      0x20\n      dup2\n      dup4\n      sub\n      sub\n      dup2\n      mstore\n      swap1\n      0x40\n      mstore\n      and(not(0xffffffffffffffffffffffffffffffffffffffffffffffffffffffff), 0xb642fe5700000000000000000000000000000000000000000000000000000000)\n      0x20\n      dup3\n      add\n      dup1\n      mload\n      0xffffffffffffffffffffffffffffffffffffffffffffffffffffffff\n      dup4\n      dup2\n      dup4\n      and\n      or\n      dup4\n      mstore\n      pop\n      pop\n      pop\n      pop\n        /* \"contracts/MarketPlace.sol\":1096:1235  LOTTERY_TOKEN_ADDRESS.call(abi.encodeWithSignature(\"transferFrom(address, address, uint256)\", msg.sender, address(this), _amount * 9 / 10)) */\n      mload(0x40)\n      tag_121\n      swap2\n      swap1\n      tag_110\n      jump\t// in\n    tag_121:\n      0x00\n      mload(0x40)\n      dup1\n      dup4\n      sub\n      dup2\n      0x00\n      dup7\n      gas\n      call\n      swap2\n      pop\n      pop\n      returndatasize\n      dup1\n      0x00\n      dup2\n      eq\n      tag_124\n      jumpi\n      mload(0x40)\n      swap2\n      pop\n      and(add(returndatasize, 0x3f), not(0x1f))\n      dup3\n      add\n      0x40\n      mstore\n      returndatasize\n      dup3\n      mstore\n      returndatasize\n      0x00\n      0x20\n      dup5\n      add\n      returndatacopy\n      jump(tag_123)\n    tag_124:\n      0x60\n      swap2\n      pop\n    tag_123:\n      pop\n        /* \"contracts/MarketPlace.sol\":1076:1235  (bool success1, ) = LOTTERY_TOKEN_ADDRESS.call(abi.encodeWithSignature(\"transferFrom(address, address, uint256)\", msg.sender, address(this), _amount * 9 / 10)) */\n      pop\n      swap1\n      pop\n        /* \"contracts/MarketPlace.sol\":1254:1262  success1 */\n      dup1\n        /* \"contracts/MarketPlace.sol\":1246:1287  require(success1, \"Error when withdraw.\") */\n      tag_125\n      jumpi\n      mload(0x40)\n      0x08c379a000000000000000000000000000000000000000000000000000000000\n      dup2\n      mstore\n      0x04\n      add\n      tag_126\n      swap1\n      tag_127\n      jump\t// in\n    tag_126:\n      mload(0x40)\n      dup1\n      swap2\n      sub\n      swap1\n      revert\n    tag_125:\n        /* \"contracts/MarketPlace.sol\":871:1295  {\r... */\n      pop\n      pop\n        /* \"contracts/MarketPlace.sol\":831:1295  function _pay(uint256 _amount) internal {\r... */\n      pop\n      jump\t// out\n        /* \"contracts/MarketPlace.sol\":2297:2504  function _burnToken(uint256 amount) internal {\r... */\n    tag_68:\n        /* \"contracts/MarketPlace.sol\":2354:2366  bool success */\n      0x00\n        /* \"contracts/MarketPlace.sol\":238:239  0 */\n      dup1\n        /* \"contracts/MarketPlace.sol\":2372:2398  LOTTERY_TOKEN_ADDRESS.call */\n      0xffffffffffffffffffffffffffffffffffffffff\n      and\n        /* \"contracts/MarketPlace.sol\":2440:2446  amount */\n      dup3\n        /* \"contracts/MarketPlace.sol\":2399:2447  abi.encodeWithSignature(\"burn(uint256)\", amount) */\n      add(0x24, mload(0x40))\n      tag_129\n      swap2\n      swap1\n      tag_130\n      jump\t// in\n    tag_129:\n      mload(0x40)\n      0x20\n      dup2\n      dup4\n      sub\n      sub\n      dup2\n      mstore\n      swap1\n      0x40\n      mstore\n      and(not(0xffffffffffffffffffffffffffffffffffffffffffffffffffffffff), 0x42966c6800000000000000000000000000000000000000000000000000000000)\n      0x20\n      dup3\n      add\n      dup1\n      mload\n      0xffffffffffffffffffffffffffffffffffffffffffffffffffffffff\n      dup4\n      dup2\n      dup4\n      and\n      or\n      dup4\n      mstore\n      pop\n      pop\n      pop\n      pop\n        /* \"contracts/MarketPlace.sol\":2372:2448  LOTTERY_TOKEN_ADDRESS.call(abi.encodeWithSignature(\"burn(uint256)\", amount)) */\n      mload(0x40)\n      tag_131\n      swap2\n      swap1\n      tag_110\n      jump\t// in\n    tag_131:\n      0x00\n      mload(0x40)\n      dup1\n      dup4\n      sub\n      dup2\n      0x00\n      dup7\n      gas\n      call\n      swap2\n      pop\n      pop\n      returndatasize\n      dup1\n      0x00\n      dup2\n      eq\n      tag_134\n      jumpi\n      mload(0x40)\n      swap2\n      pop\n      and(add(returndatasize, 0x3f), not(0x1f))\n      dup3\n      add\n      0x40\n      mstore\n      returndatasize\n      dup3\n      mstore\n      returndatasize\n      0x00\n      0x20\n      dup5\n      add\n      returndatacopy\n      jump(tag_133)\n    tag_134:\n      0x60\n      swap2\n      pop\n    tag_133:\n      pop\n        /* \"contracts/MarketPlace.sol\":2353:2448  (bool success, ) = LOTTERY_TOKEN_ADDRESS.call(abi.encodeWithSignature(\"burn(uint256)\", amount)) */\n      pop\n      swap1\n      pop\n        /* \"contracts/MarketPlace.sol\":2468:2475  success */\n      dup1\n        /* \"contracts/MarketPlace.sol\":2459:2496  require (success, \"Error when burn.\") */\n      tag_135\n      jumpi\n      mload(0x40)\n      0x08c379a000000000000000000000000000000000000000000000000000000000\n      dup2\n      mstore\n      0x04\n      add\n      tag_136\n      swap1\n      tag_137\n      jump\t// in\n    tag_136:\n      mload(0x40)\n      dup1\n      swap2\n      sub\n      swap1\n      revert\n    tag_135:\n        /* \"contracts/MarketPlace.sol\":2342:2504  {\r... */\n      pop\n        /* \"contracts/MarketPlace.sol\":2297:2504  function _burnToken(uint256 amount) internal {\r... */\n      pop\n      jump\t// out\n    tag_90:\n      pop\n      dup1\n      sload\n      0x00\n      dup3\n      sstore\n      0x02\n      mul\n      swap1\n      0x00\n      mstore\n      keccak256(0x00, 0x20)\n      swap1\n      dup2\n      add\n      swap1\n      tag_139\n      swap2\n      swap1\n      tag_140\n      jump\t// in\n    tag_139:\n      pop\n      jump\t// out\n    tag_94:\n      pop\n      dup1\n      sload\n      0x00\n      dup3\n      sstore\n      swap1\n      0x00\n      mstore\n      keccak256(0x00, 0x20)\n      swap1\n      dup2\n      add\n      swap1\n      tag_142\n      swap2\n      swap1\n      tag_143\n      jump\t// in\n    tag_142:\n      pop\n      jump\t// out\n    tag_105:\n      pop\n      dup1\n      sload\n      0x00\n      dup3\n      sstore\n      swap1\n      0x00\n      mstore\n      keccak256(0x00, 0x20)\n      swap1\n      dup2\n      add\n      swap1\n      tag_145\n      swap2\n      swap1\n      tag_143\n      jump\t// in\n    tag_145:\n      pop\n      jump\t// out\n    tag_140:\n    tag_146:\n      dup1\n      dup3\n      gt\n      iszero\n      tag_147\n      jumpi\n      0x00\n      dup1\n      dup3\n      add\n      0x00\n      swap1\n      sstore\n      0x01\n      dup3\n      add\n      0x00\n      swap1\n      sstore\n      pop\n      0x02\n      add\n      jump(tag_146)\n    tag_147:\n      pop\n      swap1\n      jump\t// out\n    tag_143:\n    tag_148:\n      dup1\n      dup3\n      gt\n      iszero\n      tag_149\n      jumpi\n      0x00\n      dup2\n      0x00\n      swap1\n      sstore\n      pop\n      0x01\n      add\n      jump(tag_148)\n    tag_149:\n      pop\n      swap1\n      jump\t// out\n        /* \"#utility.yul\":7:146   */\n    tag_151:\n        /* \"#utility.yul\":53:58   */\n      0x00\n        /* \"#utility.yul\":91:97   */\n      dup2\n        /* \"#utility.yul\":78:98   */\n      calldataload\n        /* \"#utility.yul\":69:98   */\n      swap1\n      pop\n        /* \"#utility.yul\":107:140   */\n      tag_153\n        /* \"#utility.yul\":134:139   */\n      dup2\n        /* \"#utility.yul\":107:140   */\n      tag_154\n      jump\t// in\n    tag_153:\n        /* \"#utility.yul\":7:146   */\n      swap3\n      swap2\n      pop\n      pop\n      jump\t// out\n        /* \"#utility.yul\":152:291   */\n    tag_155:\n        /* \"#utility.yul\":198:203   */\n      0x00\n        /* \"#utility.yul\":236:242   */\n      dup2\n        /* \"#utility.yul\":223:243   */\n      calldataload\n        /* \"#utility.yul\":214:243   */\n      swap1\n      pop\n        /* \"#utility.yul\":252:285   */\n      tag_157\n        /* \"#utility.yul\":279:284   */\n      dup2\n        /* \"#utility.yul\":252:285   */\n      tag_158\n      jump\t// in\n    tag_157:\n        /* \"#utility.yul\":152:291   */\n      swap3\n      swap2\n      pop\n      pop\n      jump\t// out\n        /* \"#utility.yul\":297:626   */\n    tag_25:\n        /* \"#utility.yul\":356:362   */\n      0x00\n        /* \"#utility.yul\":405:407   */\n      0x20\n        /* \"#utility.yul\":393:402   */\n      dup3\n        /* \"#utility.yul\":384:391   */\n      dup5\n        /* \"#utility.yul\":380:403   */\n      sub\n        /* \"#utility.yul\":376:408   */\n      slt\n        /* \"#utility.yul\":373:492   */\n      iszero\n      tag_160\n      jumpi\n        /* \"#utility.yul\":411:490   */\n      tag_161\n      tag_162\n      jump\t// in\n    tag_161:\n        /* \"#utility.yul\":373:492   */\n    tag_160:\n        /* \"#utility.yul\":531:532   */\n      0x00\n        /* \"#utility.yul\":556:609   */\n      tag_163\n        /* \"#utility.yul\":601:608   */\n      dup5\n        /* \"#utility.yul\":592:598   */\n      dup3\n        /* \"#utility.yul\":581:590   */\n      dup6\n        /* \"#utility.yul\":577:599   */\n      add\n        /* \"#utility.yul\":556:609   */\n      tag_151\n      jump\t// in\n    tag_163:\n        /* \"#utility.yul\":546:609   */\n      swap2\n      pop\n        /* \"#utility.yul\":502:619   */\n      pop\n        /* \"#utility.yul\":297:626   */\n      swap3\n      swap2\n      pop\n      pop\n      jump\t// out\n        /* \"#utility.yul\":632:1106   */\n    tag_19:\n        /* \"#utility.yul\":700:706   */\n      0x00\n        /* \"#utility.yul\":708:714   */\n      dup1\n        /* \"#utility.yul\":757:759   */\n      0x40\n        /* \"#utility.yul\":745:754   */\n      dup4\n        /* \"#utility.yul\":736:743   */\n      dup6\n        /* \"#utility.yul\":732:755   */\n      sub\n        /* \"#utility.yul\":728:760   */\n      slt\n        /* \"#utility.yul\":725:844   */\n      iszero\n      tag_165\n      jumpi\n        /* \"#utility.yul\":763:842   */\n      tag_166\n      tag_162\n      jump\t// in\n    tag_166:\n        /* \"#utility.yul\":725:844   */\n    tag_165:\n        /* \"#utility.yul\":883:884   */\n      0x00\n        /* \"#utility.yul\":908:961   */\n      tag_167\n        /* \"#utility.yul\":953:960   */\n      dup6\n        /* \"#utility.yul\":944:950   */\n      dup3\n        /* \"#utility.yul\":933:942   */\n      dup7\n        /* \"#utility.yul\":929:951   */\n      add\n        /* \"#utility.yul\":908:961   */\n      tag_155\n      jump\t// in\n    tag_167:\n        /* \"#utility.yul\":898:961   */\n      swap3\n      pop\n        /* \"#utility.yul\":854:971   */\n      pop\n        /* \"#utility.yul\":1010:1012   */\n      0x20\n        /* \"#utility.yul\":1036:1089   */\n      tag_168\n        /* \"#utility.yul\":1081:1088   */\n      dup6\n        /* \"#utility.yul\":1072:1078   */\n      dup3\n        /* \"#utility.yul\":1061:1070   */\n      dup7\n        /* \"#utility.yul\":1057:1079   */\n      add\n        /* \"#utility.yul\":1036:1089   */\n      tag_155\n      jump\t// in\n    tag_168:\n        /* \"#utility.yul\":1026:1089   */\n      swap2\n      pop\n        /* \"#utility.yul\":981:1099   */\n      pop\n        /* \"#utility.yul\":632:1106   */\n      swap3\n      pop\n      swap3\n      swap1\n      pop\n      jump\t// out\n        /* \"#utility.yul\":1112:1230   */\n    tag_169:\n        /* \"#utility.yul\":1199:1223   */\n      tag_171\n        /* \"#utility.yul\":1217:1222   */\n      dup2\n        /* \"#utility.yul\":1199:1223   */\n      tag_172\n      jump\t// in\n    tag_171:\n        /* \"#utility.yul\":1194:1197   */\n      dup3\n        /* \"#utility.yul\":1187:1224   */\n      mstore\n        /* \"#utility.yul\":1112:1230   */\n      pop\n      pop\n      jump\t// out\n        /* \"#utility.yul\":1236:1609   */\n    tag_173:\n        /* \"#utility.yul\":1340:1343   */\n      0x00\n        /* \"#utility.yul\":1368:1406   */\n      tag_175\n        /* \"#utility.yul\":1400:1405   */\n      dup3\n        /* \"#utility.yul\":1368:1406   */\n      tag_176\n      jump\t// in\n    tag_175:\n        /* \"#utility.yul\":1422:1510   */\n      tag_177\n        /* \"#utility.yul\":1503:1509   */\n      dup2\n        /* \"#utility.yul\":1498:1501   */\n      dup6\n        /* \"#utility.yul\":1422:1510   */\n      tag_178\n      jump\t// in\n    tag_177:\n        /* \"#utility.yul\":1415:1510   */\n      swap4\n      pop\n        /* \"#utility.yul\":1519:1571   */\n      tag_179\n        /* \"#utility.yul\":1564:1570   */\n      dup2\n        /* \"#utility.yul\":1559:1562   */\n      dup6\n        /* \"#utility.yul\":1552:1556   */\n      0x20\n        /* \"#utility.yul\":1545:1550   */\n      dup7\n        /* \"#utility.yul\":1541:1557   */\n      add\n        /* \"#utility.yul\":1519:1571   */\n      tag_180\n      jump\t// in\n    tag_179:\n        /* \"#utility.yul\":1596:1602   */\n      dup1\n        /* \"#utility.yul\":1591:1594   */\n      dup5\n        /* \"#utility.yul\":1587:1603   */\n      add\n        /* \"#utility.yul\":1580:1603   */\n      swap2\n      pop\n        /* \"#utility.yul\":1344:1609   */\n      pop\n        /* \"#utility.yul\":1236:1609   */\n      swap3\n      swap2\n      pop\n      pop\n      jump\t// out\n        /* \"#utility.yul\":1615:1981   */\n    tag_181:\n        /* \"#utility.yul\":1757:1760   */\n      0x00\n        /* \"#utility.yul\":1778:1845   */\n      tag_183\n        /* \"#utility.yul\":1842:1844   */\n      0x26\n        /* \"#utility.yul\":1837:1840   */\n      dup4\n        /* \"#utility.yul\":1778:1845   */\n      tag_184\n      jump\t// in\n    tag_183:\n        /* \"#utility.yul\":1771:1845   */\n      swap2\n      pop\n        /* \"#utility.yul\":1854:1947   */\n      tag_185\n        /* \"#utility.yul\":1943:1946   */\n      dup3\n        /* \"#utility.yul\":1854:1947   */\n      tag_186\n      jump\t// in\n    tag_185:\n        /* \"#utility.yul\":1972:1974   */\n      0x40\n        /* \"#utility.yul\":1967:1970   */\n      dup3\n        /* \"#utility.yul\":1963:1975   */\n      add\n        /* \"#utility.yul\":1956:1975   */\n      swap1\n      pop\n        /* \"#utility.yul\":1615:1981   */\n      swap2\n      swap1\n      pop\n      jump\t// out\n        /* \"#utility.yul\":1987:2353   */\n    tag_187:\n        /* \"#utility.yul\":2129:2132   */\n      0x00\n        /* \"#utility.yul\":2150:2217   */\n      tag_189\n        /* \"#utility.yul\":2214:2216   */\n      0x1b\n        /* \"#utility.yul\":2209:2212   */\n      dup4\n        /* \"#utility.yul\":2150:2217   */\n      tag_184\n      jump\t// in\n    tag_189:\n        /* \"#utility.yul\":2143:2217   */\n      swap2\n      pop\n        /* \"#utility.yul\":2226:2319   */\n      tag_190\n        /* \"#utility.yul\":2315:2318   */\n      dup3\n        /* \"#utility.yul\":2226:2319   */\n      tag_191\n      jump\t// in\n    tag_190:\n        /* \"#utility.yul\":2344:2346   */\n      0x20\n        /* \"#utility.yul\":2339:2342   */\n      dup3\n        /* \"#utility.yul\":2335:2347   */\n      add\n        /* \"#utility.yul\":2328:2347   */\n      swap1\n      pop\n        /* \"#utility.yul\":1987:2353   */\n      swap2\n      swap1\n      pop\n      jump\t// out\n        /* \"#utility.yul\":2359:2725   */\n    tag_192:\n        /* \"#utility.yul\":2501:2504   */\n      0x00\n        /* \"#utility.yul\":2522:2589   */\n      tag_194\n        /* \"#utility.yul\":2586:2588   */\n      0x14\n        /* \"#utility.yul\":2581:2584   */\n      dup4\n        /* \"#utility.yul\":2522:2589   */\n      tag_184\n      jump\t// in\n    tag_194:\n        /* \"#utility.yul\":2515:2589   */\n      swap2\n      pop\n        /* \"#utility.yul\":2598:2691   */\n      tag_195\n        /* \"#utility.yul\":2687:2690   */\n      dup3\n        /* \"#utility.yul\":2598:2691   */\n      tag_196\n      jump\t// in\n    tag_195:\n        /* \"#utility.yul\":2716:2718   */\n      0x20\n        /* \"#utility.yul\":2711:2714   */\n      dup3\n        /* \"#utility.yul\":2707:2719   */\n      add\n        /* \"#utility.yul\":2700:2719   */\n      swap1\n      pop\n        /* \"#utility.yul\":2359:2725   */\n      swap2\n      swap1\n      pop\n      jump\t// out\n        /* \"#utility.yul\":2731:3097   */\n    tag_197:\n        /* \"#utility.yul\":2873:2876   */\n      0x00\n        /* \"#utility.yul\":2894:2961   */\n      tag_199\n        /* \"#utility.yul\":2958:2960   */\n      0x1a\n        /* \"#utility.yul\":2953:2956   */\n      dup4\n        /* \"#utility.yul\":2894:2961   */\n      tag_184\n      jump\t// in\n    tag_199:\n        /* \"#utility.yul\":2887:2961   */\n      swap2\n      pop\n        /* \"#utility.yul\":2970:3063   */\n      tag_200\n        /* \"#utility.yul\":3059:3062   */\n      dup3\n        /* \"#utility.yul\":2970:3063   */\n      tag_201\n      jump\t// in\n    tag_200:\n        /* \"#utility.yul\":3088:3090   */\n      0x20\n        /* \"#utility.yul\":3083:3086   */\n      dup3\n        /* \"#utility.yul\":3079:3091   */\n      add\n        /* \"#utility.yul\":3072:3091   */\n      swap1\n      pop\n        /* \"#utility.yul\":2731:3097   */\n      swap2\n      swap1\n      pop\n      jump\t// out\n        /* \"#utility.yul\":3103:3469   */\n    tag_202:\n        /* \"#utility.yul\":3245:3248   */\n      0x00\n        /* \"#utility.yul\":3266:3333   */\n      tag_204\n        /* \"#utility.yul\":3330:3332   */\n      0x10\n        /* \"#utility.yul\":3325:3328   */\n      dup4\n        /* \"#utility.yul\":3266:3333   */\n      tag_184\n      jump\t// in\n    tag_204:\n        /* \"#utility.yul\":3259:3333   */\n      swap2\n      pop\n        /* \"#utility.yul\":3342:3435   */\n      tag_205\n        /* \"#utility.yul\":3431:3434   */\n      dup3\n        /* \"#utility.yul\":3342:3435   */\n      tag_206\n      jump\t// in\n    tag_205:\n        /* \"#utility.yul\":3460:3462   */\n      0x20\n        /* \"#utility.yul\":3455:3458   */\n      dup3\n        /* \"#utility.yul\":3451:3463   */\n      add\n        /* \"#utility.yul\":3444:3463   */\n      swap1\n      pop\n        /* \"#utility.yul\":3103:3469   */\n      swap2\n      swap1\n      pop\n      jump\t// out\n        /* \"#utility.yul\":3475:3841   */\n    tag_207:\n        /* \"#utility.yul\":3617:3620   */\n      0x00\n        /* \"#utility.yul\":3638:3705   */\n      tag_209\n        /* \"#utility.yul\":3702:3704   */\n      0x20\n        /* \"#utility.yul\":3697:3700   */\n      dup4\n        /* \"#utility.yul\":3638:3705   */\n      tag_184\n      jump\t// in\n    tag_209:\n        /* \"#utility.yul\":3631:3705   */\n      swap2\n      pop\n        /* \"#utility.yul\":3714:3807   */\n      tag_210\n        /* \"#utility.yul\":3803:3806   */\n      dup3\n        /* \"#utility.yul\":3714:3807   */\n      tag_211\n      jump\t// in\n    tag_210:\n        /* \"#utility.yul\":3832:3834   */\n      0x20\n        /* \"#utility.yul\":3827:3830   */\n      dup3\n        /* \"#utility.yul\":3823:3835   */\n      add\n        /* \"#utility.yul\":3816:3835   */\n      swap1\n      pop\n        /* \"#utility.yul\":3475:3841   */\n      swap2\n      swap1\n      pop\n      jump\t// out\n        /* \"#utility.yul\":3847:4213   */\n    tag_212:\n        /* \"#utility.yul\":3989:3992   */\n      0x00\n        /* \"#utility.yul\":4010:4077   */\n      tag_214\n        /* \"#utility.yul\":4074:4076   */\n      0x1d\n        /* \"#utility.yul\":4069:4072   */\n      dup4\n        /* \"#utility.yul\":4010:4077   */\n      tag_184\n      jump\t// in\n    tag_214:\n        /* \"#utility.yul\":4003:4077   */\n      swap2\n      pop\n        /* \"#utility.yul\":4086:4179   */\n      tag_215\n        /* \"#utility.yul\":4175:4178   */\n      dup3\n        /* \"#utility.yul\":4086:4179   */\n      tag_216\n      jump\t// in\n    tag_215:\n        /* \"#utility.yul\":4204:4206   */\n      0x20\n        /* \"#utility.yul\":4199:4202   */\n      dup3\n        /* \"#utility.yul\":4195:4207   */\n      add\n        /* \"#utility.yul\":4188:4207   */\n      swap1\n      pop\n        /* \"#utility.yul\":3847:4213   */\n      swap2\n      swap1\n      pop\n      jump\t// out\n        /* \"#utility.yul\":4219:4337   */\n    tag_217:\n        /* \"#utility.yul\":4306:4330   */\n      tag_219\n        /* \"#utility.yul\":4324:4329   */\n      dup2\n        /* \"#utility.yul\":4306:4330   */\n      tag_220\n      jump\t// in\n    tag_219:\n        /* \"#utility.yul\":4301:4304   */\n      dup3\n        /* \"#utility.yul\":4294:4331   */\n      mstore\n        /* \"#utility.yul\":4219:4337   */\n      pop\n      pop\n      jump\t// out\n        /* \"#utility.yul\":4343:4614   */\n    tag_110:\n        /* \"#utility.yul\":4473:4476   */\n      0x00\n        /* \"#utility.yul\":4495:4588   */\n      tag_222\n        /* \"#utility.yul\":4584:4587   */\n      dup3\n        /* \"#utility.yul\":4575:4581   */\n      dup5\n        /* \"#utility.yul\":4495:4588   */\n      tag_173\n      jump\t// in\n    tag_222:\n        /* \"#utility.yul\":4488:4588   */\n      swap2\n      pop\n        /* \"#utility.yul\":4605:4608   */\n      dup2\n        /* \"#utility.yul\":4598:4608   */\n      swap1\n      pop\n        /* \"#utility.yul\":4343:4614   */\n      swap3\n      swap2\n      pop\n      pop\n      jump\t// out\n        /* \"#utility.yul\":4620:4842   */\n    tag_16:\n        /* \"#utility.yul\":4713:4717   */\n      0x00\n        /* \"#utility.yul\":4751:4753   */\n      0x20\n        /* \"#utility.yul\":4740:4749   */\n      dup3\n        /* \"#utility.yul\":4736:4754   */\n      add\n        /* \"#utility.yul\":4728:4754   */\n      swap1\n      pop\n        /* \"#utility.yul\":4764:4835   */\n      tag_224\n        /* \"#utility.yul\":4832:4833   */\n      0x00\n        /* \"#utility.yul\":4821:4830   */\n      dup4\n        /* \"#utility.yul\":4817:4834   */\n      add\n        /* \"#utility.yul\":4808:4814   */\n      dup5\n        /* \"#utility.yul\":4764:4835   */\n      tag_169\n      jump\t// in\n    tag_224:\n        /* \"#utility.yul\":4620:4842   */\n      swap3\n      swap2\n      pop\n      pop\n      jump\t// out\n        /* \"#utility.yul\":4848:5290   */\n    tag_120:\n        /* \"#utility.yul\":4997:5001   */\n      0x00\n        /* \"#utility.yul\":5035:5037   */\n      0x60\n        /* \"#utility.yul\":5024:5033   */\n      dup3\n        /* \"#utility.yul\":5020:5038   */\n      add\n        /* \"#utility.yul\":5012:5038   */\n      swap1\n      pop\n        /* \"#utility.yul\":5048:5119   */\n      tag_226\n        /* \"#utility.yul\":5116:5117   */\n      0x00\n        /* \"#utility.yul\":5105:5114   */\n      dup4\n        /* \"#utility.yul\":5101:5118   */\n      add\n        /* \"#utility.yul\":5092:5098   */\n      dup7\n        /* \"#utility.yul\":5048:5119   */\n      tag_169\n      jump\t// in\n    tag_226:\n        /* \"#utility.yul\":5129:5201   */\n      tag_227\n        /* \"#utility.yul\":5197:5199   */\n      0x20\n        /* \"#utility.yul\":5186:5195   */\n      dup4\n        /* \"#utility.yul\":5182:5200   */\n      add\n        /* \"#utility.yul\":5173:5179   */\n      dup6\n        /* \"#utility.yul\":5129:5201   */\n      tag_169\n      jump\t// in\n    tag_227:\n        /* \"#utility.yul\":5211:5283   */\n      tag_228\n        /* \"#utility.yul\":5279:5281   */\n      0x40\n        /* \"#utility.yul\":5268:5277   */\n      dup4\n        /* \"#utility.yul\":5264:5282   */\n      add\n        /* \"#utility.yul\":5255:5261   */\n      dup5\n        /* \"#utility.yul\":5211:5283   */\n      tag_217\n      jump\t// in\n    tag_228:\n        /* \"#utility.yul\":4848:5290   */\n      swap5\n      swap4\n      pop\n      pop\n      pop\n      pop\n      jump\t// out\n        /* \"#utility.yul\":5296:5628   */\n    tag_108:\n        /* \"#utility.yul\":5417:5421   */\n      0x00\n        /* \"#utility.yul\":5455:5457   */\n      0x40\n        /* \"#utility.yul\":5444:5453   */\n      dup3\n        /* \"#utility.yul\":5440:5458   */\n      add\n        /* \"#utility.yul\":5432:5458   */\n      swap1\n      pop\n        /* \"#utility.yul\":5468:5539   */\n      tag_230\n        /* \"#utility.yul\":5536:5537   */\n      0x00\n        /* \"#utility.yul\":5525:5534   */\n      dup4\n        /* \"#utility.yul\":5521:5538   */\n      add\n        /* \"#utility.yul\":5512:5518   */\n      dup6\n        /* \"#utility.yul\":5468:5539   */\n      tag_169\n      jump\t// in\n    tag_230:\n        /* \"#utility.yul\":5549:5621   */\n      tag_231\n        /* \"#utility.yul\":5617:5619   */\n      0x20\n        /* \"#utility.yul\":5606:5615   */\n      dup4\n        /* \"#utility.yul\":5602:5620   */\n      add\n        /* \"#utility.yul\":5593:5599   */\n      dup5\n        /* \"#utility.yul\":5549:5621   */\n      tag_217\n      jump\t// in\n    tag_231:\n        /* \"#utility.yul\":5296:5628   */\n      swap4\n      swap3\n      pop\n      pop\n      pop\n      jump\t// out\n        /* \"#utility.yul\":5634:6053   */\n    tag_77:\n        /* \"#utility.yul\":5800:5804   */\n      0x00\n        /* \"#utility.yul\":5838:5840   */\n      0x20\n        /* \"#utility.yul\":5827:5836   */\n      dup3\n        /* \"#utility.yul\":5823:5841   */\n      add\n        /* \"#utility.yul\":5815:5841   */\n      swap1\n      pop\n        /* \"#utility.yul\":5887:5896   */\n      dup2\n        /* \"#utility.yul\":5881:5885   */\n      dup2\n        /* \"#utility.yul\":5877:5897   */\n      sub\n        /* \"#utility.yul\":5873:5874   */\n      0x00\n        /* \"#utility.yul\":5862:5871   */\n      dup4\n        /* \"#utility.yul\":5858:5875   */\n      add\n        /* \"#utility.yul\":5851:5898   */\n      mstore\n        /* \"#utility.yul\":5915:6046   */\n      tag_233\n        /* \"#utility.yul\":6041:6045   */\n      dup2\n        /* \"#utility.yul\":5915:6046   */\n      tag_181\n      jump\t// in\n    tag_233:\n        /* \"#utility.yul\":5907:6046   */\n      swap1\n      pop\n        /* \"#utility.yul\":5634:6053   */\n      swap2\n      swap1\n      pop\n      jump\t// out\n        /* \"#utility.yul\":6059:6478   */\n    tag_55:\n        /* \"#utility.yul\":6225:6229   */\n      0x00\n        /* \"#utility.yul\":6263:6265   */\n      0x20\n        /* \"#utility.yul\":6252:6261   */\n      dup3\n        /* \"#utility.yul\":6248:6266   */\n      add\n        /* \"#utility.yul\":6240:6266   */\n      swap1\n      pop\n        /* \"#utility.yul\":6312:6321   */\n      dup2\n        /* \"#utility.yul\":6306:6310   */\n      dup2\n        /* \"#utility.yul\":6302:6322   */\n      sub\n        /* \"#utility.yul\":6298:6299   */\n      0x00\n        /* \"#utility.yul\":6287:6296   */\n      dup4\n        /* \"#utility.yul\":6283:6300   */\n      add\n        /* \"#utility.yul\":6276:6323   */\n      mstore\n        /* \"#utility.yul\":6340:6471   */\n      tag_235\n        /* \"#utility.yul\":6466:6470   */\n      dup2\n        /* \"#utility.yul\":6340:6471   */\n      tag_187\n      jump\t// in\n    tag_235:\n        /* \"#utility.yul\":6332:6471   */\n      swap1\n      pop\n        /* \"#utility.yul\":6059:6478   */\n      swap2\n      swap1\n      pop\n      jump\t// out\n        /* \"#utility.yul\":6484:6903   */\n    tag_127:\n        /* \"#utility.yul\":6650:6654   */\n      0x00\n        /* \"#utility.yul\":6688:6690   */\n      0x20\n        /* \"#utility.yul\":6677:6686   */\n      dup3\n        /* \"#utility.yul\":6673:6691   */\n      add\n        /* \"#utility.yul\":6665:6691   */\n      swap1\n      pop\n        /* \"#utility.yul\":6737:6746   */\n      dup2\n        /* \"#utility.yul\":6731:6735   */\n      dup2\n        /* \"#utility.yul\":6727:6747   */\n      sub\n        /* \"#utility.yul\":6723:6724   */\n      0x00\n        /* \"#utility.yul\":6712:6721   */\n      dup4\n        /* \"#utility.yul\":6708:6725   */\n      add\n        /* \"#utility.yul\":6701:6748   */\n      mstore\n        /* \"#utility.yul\":6765:6896   */\n      tag_237\n        /* \"#utility.yul\":6891:6895   */\n      dup2\n        /* \"#utility.yul\":6765:6896   */\n      tag_192\n      jump\t// in\n    tag_237:\n        /* \"#utility.yul\":6757:6896   */\n      swap1\n      pop\n        /* \"#utility.yul\":6484:6903   */\n      swap2\n      swap1\n      pop\n      jump\t// out\n        /* \"#utility.yul\":6909:7328   */\n    tag_37:\n        /* \"#utility.yul\":7075:7079   */\n      0x00\n        /* \"#utility.yul\":7113:7115   */\n      0x20\n        /* \"#utility.yul\":7102:7111   */\n      dup3\n        /* \"#utility.yul\":7098:7116   */\n      add\n        /* \"#utility.yul\":7090:7116   */\n      swap1\n      pop\n        /* \"#utility.yul\":7162:7171   */\n      dup2\n        /* \"#utility.yul\":7156:7160   */\n      dup2\n        /* \"#utility.yul\":7152:7172   */\n      sub\n        /* \"#utility.yul\":7148:7149   */\n      0x00\n        /* \"#utility.yul\":7137:7146   */\n      dup4\n        /* \"#utility.yul\":7133:7150   */\n      add\n        /* \"#utility.yul\":7126:7173   */\n      mstore\n        /* \"#utility.yul\":7190:7321   */\n      tag_239\n        /* \"#utility.yul\":7316:7320   */\n      dup2\n        /* \"#utility.yul\":7190:7321   */\n      tag_197\n      jump\t// in\n    tag_239:\n        /* \"#utility.yul\":7182:7321   */\n      swap1\n      pop\n        /* \"#utility.yul\":6909:7328   */\n      swap2\n      swap1\n      pop\n      jump\t// out\n        /* \"#utility.yul\":7334:7753   */\n    tag_137:\n        /* \"#utility.yul\":7500:7504   */\n      0x00\n        /* \"#utility.yul\":7538:7540   */\n      0x20\n        /* \"#utility.yul\":7527:7536   */\n      dup3\n        /* \"#utility.yul\":7523:7541   */\n      add\n        /* \"#utility.yul\":7515:7541   */\n      swap1\n      pop\n        /* \"#utility.yul\":7587:7596   */\n      dup2\n        /* \"#utility.yul\":7581:7585   */\n      dup2\n        /* \"#utility.yul\":7577:7597   */\n      sub\n        /* \"#utility.yul\":7573:7574   */\n      0x00\n        /* \"#utility.yul\":7562:7571   */\n      dup4\n        /* \"#utility.yul\":7558:7575   */\n      add\n        /* \"#utility.yul\":7551:7598   */\n      mstore\n        /* \"#utility.yul\":7615:7746   */\n      tag_241\n        /* \"#utility.yul\":7741:7745   */\n      dup2\n        /* \"#utility.yul\":7615:7746   */\n      tag_202\n      jump\t// in\n    tag_241:\n        /* \"#utility.yul\":7607:7746   */\n      swap1\n      pop\n        /* \"#utility.yul\":7334:7753   */\n      swap2\n      swap1\n      pop\n      jump\t// out\n        /* \"#utility.yul\":7759:8178   */\n    tag_33:\n        /* \"#utility.yul\":7925:7929   */\n      0x00\n        /* \"#utility.yul\":7963:7965   */\n      0x20\n        /* \"#utility.yul\":7952:7961   */\n      dup3\n        /* \"#utility.yul\":7948:7966   */\n      add\n        /* \"#utility.yul\":7940:7966   */\n      swap1\n      pop\n        /* \"#utility.yul\":8012:8021   */\n      dup2\n        /* \"#utility.yul\":8006:8010   */\n      dup2\n        /* \"#utility.yul\":8002:8022   */\n      sub\n        /* \"#utility.yul\":7998:7999   */\n      0x00\n        /* \"#utility.yul\":7987:7996   */\n      dup4\n        /* \"#utility.yul\":7983:8000   */\n      add\n        /* \"#utility.yul\":7976:8023   */\n      mstore\n        /* \"#utility.yul\":8040:8171   */\n      tag_243\n        /* \"#utility.yul\":8166:8170   */\n      dup2\n        /* \"#utility.yul\":8040:8171   */\n      tag_207\n      jump\t// in\n    tag_243:\n        /* \"#utility.yul\":8032:8171   */\n      swap1\n      pop\n        /* \"#utility.yul\":7759:8178   */\n      swap2\n      swap1\n      pop\n      jump\t// out\n        /* \"#utility.yul\":8184:8603   */\n    tag_116:\n        /* \"#utility.yul\":8350:8354   */\n      0x00\n        /* \"#utility.yul\":8388:8390   */\n      0x20\n        /* \"#utility.yul\":8377:8386   */\n      dup3\n        /* \"#utility.yul\":8373:8391   */\n      add\n        /* \"#utility.yul\":8365:8391   */\n      swap1\n      pop\n        /* \"#utility.yul\":8437:8446   */\n      dup2\n        /* \"#utility.yul\":8431:8435   */\n      dup2\n        /* \"#utility.yul\":8427:8447   */\n      sub\n        /* \"#utility.yul\":8423:8424   */\n      0x00\n        /* \"#utility.yul\":8412:8421   */\n      dup4\n        /* \"#utility.yul\":8408:8425   */\n      add\n        /* \"#utility.yul\":8401:8448   */\n      mstore\n        /* \"#utility.yul\":8465:8596   */\n      tag_245\n        /* \"#utility.yul\":8591:8595   */\n      dup2\n        /* \"#utility.yul\":8465:8596   */\n      tag_212\n      jump\t// in\n    tag_245:\n        /* \"#utility.yul\":8457:8596   */\n      swap1\n      pop\n        /* \"#utility.yul\":8184:8603   */\n      swap2\n      swap1\n      pop\n      jump\t// out\n        /* \"#utility.yul\":8609:8831   */\n    tag_130:\n        /* \"#utility.yul\":8702:8706   */\n      0x00\n        /* \"#utility.yul\":8740:8742   */\n      0x20\n        /* \"#utility.yul\":8729:8738   */\n      dup3\n        /* \"#utility.yul\":8725:8743   */\n      add\n        /* \"#utility.yul\":8717:8743   */\n      swap1\n      pop\n        /* \"#utility.yul\":8753:8824   */\n      tag_247\n        /* \"#utility.yul\":8821:8822   */\n      0x00\n        /* \"#utility.yul\":8810:8819   */\n      dup4\n        /* \"#utility.yul\":8806:8823   */\n      add\n        /* \"#utility.yul\":8797:8803   */\n      dup5\n        /* \"#utility.yul\":8753:8824   */\n      tag_217\n      jump\t// in\n    tag_247:\n        /* \"#utility.yul\":8609:8831   */\n      swap3\n      swap2\n      pop\n      pop\n      jump\t// out\n        /* \"#utility.yul\":8918:9016   */\n    tag_176:\n        /* \"#utility.yul\":8969:8975   */\n      0x00\n        /* \"#utility.yul\":9003:9008   */\n      dup2\n        /* \"#utility.yul\":8997:9009   */\n      mload\n        /* \"#utility.yul\":8987:9009   */\n      swap1\n      pop\n        /* \"#utility.yul\":8918:9016   */\n      swap2\n      swap1\n      pop\n      jump\t// out\n        /* \"#utility.yul\":9022:9169   */\n    tag_178:\n        /* \"#utility.yul\":9123:9134   */\n      0x00\n        /* \"#utility.yul\":9160:9163   */\n      dup2\n        /* \"#utility.yul\":9145:9163   */\n      swap1\n      pop\n        /* \"#utility.yul\":9022:9169   */\n      swap3\n      swap2\n      pop\n      pop\n      jump\t// out\n        /* \"#utility.yul\":9175:9344   */\n    tag_184:\n        /* \"#utility.yul\":9259:9270   */\n      0x00\n        /* \"#utility.yul\":9293:9299   */\n      dup3\n        /* \"#utility.yul\":9288:9291   */\n      dup3\n        /* \"#utility.yul\":9281:9300   */\n      mstore\n        /* \"#utility.yul\":9333:9337   */\n      0x20\n        /* \"#utility.yul\":9328:9331   */\n      dup3\n        /* \"#utility.yul\":9324:9338   */\n      add\n        /* \"#utility.yul\":9309:9338   */\n      swap1\n      pop\n        /* \"#utility.yul\":9175:9344   */\n      swap3\n      swap2\n      pop\n      pop\n      jump\t// out\n        /* \"#utility.yul\":9350:9535   */\n    tag_67:\n        /* \"#utility.yul\":9390:9391   */\n      0x00\n        /* \"#utility.yul\":9407:9427   */\n      tag_254\n        /* \"#utility.yul\":9425:9426   */\n      dup3\n        /* \"#utility.yul\":9407:9427   */\n      tag_220\n      jump\t// in\n    tag_254:\n        /* \"#utility.yul\":9402:9427   */\n      swap2\n      pop\n        /* \"#utility.yul\":9441:9461   */\n      tag_255\n        /* \"#utility.yul\":9459:9460   */\n      dup4\n        /* \"#utility.yul\":9441:9461   */\n      tag_220\n      jump\t// in\n    tag_255:\n        /* \"#utility.yul\":9436:9461   */\n      swap3\n      pop\n        /* \"#utility.yul\":9480:9481   */\n      dup3\n        /* \"#utility.yul\":9470:9505   */\n      tag_256\n      jumpi\n        /* \"#utility.yul\":9485:9503   */\n      tag_257\n      tag_258\n      jump\t// in\n    tag_257:\n        /* \"#utility.yul\":9470:9505   */\n    tag_256:\n        /* \"#utility.yul\":9527:9528   */\n      dup3\n        /* \"#utility.yul\":9524:9525   */\n      dup3\n        /* \"#utility.yul\":9520:9529   */\n      div\n        /* \"#utility.yul\":9515:9529   */\n      swap1\n      pop\n        /* \"#utility.yul\":9350:9535   */\n      swap3\n      swap2\n      pop\n      pop\n      jump\t// out\n        /* \"#utility.yul\":9541:9889   */\n    tag_65:\n        /* \"#utility.yul\":9581:9588   */\n      0x00\n        /* \"#utility.yul\":9604:9624   */\n      tag_260\n        /* \"#utility.yul\":9622:9623   */\n      dup3\n        /* \"#utility.yul\":9604:9624   */\n      tag_220\n      jump\t// in\n    tag_260:\n        /* \"#utility.yul\":9599:9624   */\n      swap2\n      pop\n        /* \"#utility.yul\":9638:9658   */\n      tag_261\n        /* \"#utility.yul\":9656:9657   */\n      dup4\n        /* \"#utility.yul\":9638:9658   */\n      tag_220\n      jump\t// in\n    tag_261:\n        /* \"#utility.yul\":9633:9658   */\n      swap3\n      pop\n        /* \"#utility.yul\":9826:9827   */\n      dup2\n        /* \"#utility.yul\":9758:9824   */\n      0xffffffffffffffffffffffffffffffffffffffffffffffffffffffffffffffff\n        /* \"#utility.yul\":9754:9828   */\n      div\n        /* \"#utility.yul\":9751:9752   */\n      dup4\n        /* \"#utility.yul\":9748:9829   */\n      gt\n        /* \"#utility.yul\":9743:9744   */\n      dup3\n        /* \"#utility.yul\":9736:9745   */\n      iszero\n        /* \"#utility.yul\":9729:9746   */\n      iszero\n        /* \"#utility.yul\":9725:9830   */\n      and\n        /* \"#utility.yul\":9722:9853   */\n      iszero\n      tag_262\n      jumpi\n        /* \"#utility.yul\":9833:9851   */\n      tag_263\n      tag_264\n      jump\t// in\n    tag_263:\n        /* \"#utility.yul\":9722:9853   */\n    tag_262:\n        /* \"#utility.yul\":9881:9882   */\n      dup3\n        /* \"#utility.yul\":9878:9879   */\n      dup3\n        /* \"#utility.yul\":9874:9883   */\n      mul\n        /* \"#utility.yul\":9863:9883   */\n      swap1\n      pop\n        /* \"#utility.yul\":9541:9889   */\n      swap3\n      swap2\n      pop\n      pop\n      jump\t// out\n        /* \"#utility.yul\":9895:9991   */\n    tag_172:\n        /* \"#utility.yul\":9932:9939   */\n      0x00\n        /* \"#utility.yul\":9961:9985   */\n      tag_266\n        /* \"#utility.yul\":9979:9984   */\n      dup3\n        /* \"#utility.yul\":9961:9985   */\n      tag_267\n      jump\t// in\n    tag_266:\n        /* \"#utility.yul\":9950:9985   */\n      swap1\n      pop\n        /* \"#utility.yul\":9895:9991   */\n      swap2\n      swap1\n      pop\n      jump\t// out\n        /* \"#utility.yul\":9997:10123   */\n    tag_267:\n        /* \"#utility.yul\":10034:10041   */\n      0x00\n        /* \"#utility.yul\":10074:10116   */\n      0xffffffffffffffffffffffffffffffffffffffff\n        /* \"#utility.yul\":10067:10072   */\n      dup3\n        /* \"#utility.yul\":10063:10117   */\n      and\n        /* \"#utility.yul\":10052:10117   */\n      swap1\n      pop\n        /* \"#utility.yul\":9997:10123   */\n      swap2\n      swap1\n      pop\n      jump\t// out\n        /* \"#utility.yul\":10129:10206   */\n    tag_220:\n        /* \"#utility.yul\":10166:10173   */\n      0x00\n        /* \"#utility.yul\":10195:10200   */\n      dup2\n        /* \"#utility.yul\":10184:10200   */\n      swap1\n      pop\n        /* \"#utility.yul\":10129:10206   */\n      swap2\n      swap1\n      pop\n      jump\t// out\n        /* \"#utility.yul\":10212:10519   */\n    tag_180:\n        /* \"#utility.yul\":10280:10281   */\n      0x00\n        /* \"#utility.yul\":10290:10403   */\n    tag_271:\n        /* \"#utility.yul\":10304:10310   */\n      dup4\n        /* \"#utility.yul\":10301:10302   */\n      dup2\n        /* \"#utility.yul\":10298:10311   */\n      lt\n        /* \"#utility.yul\":10290:10403   */\n      iszero\n      tag_273\n      jumpi\n        /* \"#utility.yul\":10389:10390   */\n      dup1\n        /* \"#utility.yul\":10384:10387   */\n      dup3\n        /* \"#utility.yul\":10380:10391   */\n      add\n        /* \"#utility.yul\":10374:10392   */\n      mload\n        /* \"#utility.yul\":10370:10371   */\n      dup2\n        /* \"#utility.yul\":10365:10368   */\n      dup5\n        /* \"#utility.yul\":10361:10372   */\n      add\n        /* \"#utility.yul\":10354:10393   */\n      mstore\n        /* \"#utility.yul\":10326:10328   */\n      0x20\n        /* \"#utility.yul\":10323:10324   */\n      dup2\n        /* \"#utility.yul\":10319:10329   */\n      add\n        /* \"#utility.yul\":10314:10329   */\n      swap1\n      pop\n        /* \"#utility.yul\":10290:10403   */\n      jump(tag_271)\n    tag_273:\n        /* \"#utility.yul\":10421:10427   */\n      dup4\n        /* \"#utility.yul\":10418:10419   */\n      dup2\n        /* \"#utility.yul\":10415:10428   */\n      gt\n        /* \"#utility.yul\":10412:10513   */\n      iszero\n      tag_274\n      jumpi\n        /* \"#utility.yul\":10501:10502   */\n      0x00\n        /* \"#utility.yul\":10492:10498   */\n      dup5\n        /* \"#utility.yul\":10487:10490   */\n      dup5\n        /* \"#utility.yul\":10483:10499   */\n      add\n        /* \"#utility.yul\":10476:10503   */\n      mstore\n        /* \"#utility.yul\":10412:10513   */\n    tag_274:\n        /* \"#utility.yul\":10261:10519   */\n      pop\n        /* \"#utility.yul\":10212:10519   */\n      pop\n      pop\n      pop\n      jump\t// out\n        /* \"#utility.yul\":10525:10758   */\n    tag_92:\n        /* \"#utility.yul\":10564:10567   */\n      0x00\n        /* \"#utility.yul\":10587:10611   */\n      tag_276\n        /* \"#utility.yul\":10605:10610   */\n      dup3\n        /* \"#utility.yul\":10587:10611   */\n      tag_220\n      jump\t// in\n    tag_276:\n        /* \"#utility.yul\":10578:10611   */\n      swap2\n      pop\n        /* \"#utility.yul\":10633:10699   */\n      0xffffffffffffffffffffffffffffffffffffffffffffffffffffffffffffffff\n        /* \"#utility.yul\":10626:10631   */\n      dup3\n        /* \"#utility.yul\":10623:10700   */\n      eq\n        /* \"#utility.yul\":10620:10723   */\n      iszero\n      tag_277\n      jumpi\n        /* \"#utility.yul\":10703:10721   */\n      tag_278\n      tag_264\n      jump\t// in\n    tag_278:\n        /* \"#utility.yul\":10620:10723   */\n    tag_277:\n        /* \"#utility.yul\":10750:10751   */\n      0x01\n        /* \"#utility.yul\":10743:10748   */\n      dup3\n        /* \"#utility.yul\":10739:10752   */\n      add\n        /* \"#utility.yul\":10732:10752   */\n      swap1\n      pop\n        /* \"#utility.yul\":10525:10758   */\n      swap2\n      swap1\n      pop\n      jump\t// out\n        /* \"#utility.yul\":10764:10944   */\n    tag_264:\n        /* \"#utility.yul\":10812:10889   */\n      0x4e487b7100000000000000000000000000000000000000000000000000000000\n        /* \"#utility.yul\":10809:10810   */\n      0x00\n        /* \"#utility.yul\":10802:10890   */\n      mstore\n        /* \"#utility.yul\":10909:10913   */\n      0x11\n        /* \"#utility.yul\":10906:10907   */\n      0x04\n        /* \"#utility.yul\":10899:10914   */\n      mstore\n        /* \"#utility.yul\":10933:10937   */\n      0x24\n        /* \"#utility.yul\":10930:10931   */\n      0x00\n        /* \"#utility.yul\":10923:10938   */\n      revert\n        /* \"#utility.yul\":10950:11130   */\n    tag_258:\n        /* \"#utility.yul\":10998:11075   */\n      0x4e487b7100000000000000000000000000000000000000000000000000000000\n        /* \"#utility.yul\":10995:10996   */\n      0x00\n        /* \"#utility.yul\":10988:11076   */\n      mstore\n        /* \"#utility.yul\":11095:11099   */\n      0x12\n        /* \"#utility.yul\":11092:11093   */\n      0x04\n        /* \"#utility.yul\":11085:11100   */\n      mstore\n        /* \"#utility.yul\":11119:11123   */\n      0x24\n        /* \"#utility.yul\":11116:11117   */\n      0x00\n        /* \"#utility.yul\":11109:11124   */\n      revert\n        /* \"#utility.yul\":11136:11316   */\n    tag_87:\n        /* \"#utility.yul\":11184:11261   */\n      0x4e487b7100000000000000000000000000000000000000000000000000000000\n        /* \"#utility.yul\":11181:11182   */\n      0x00\n        /* \"#utility.yul\":11174:11262   */\n      mstore\n        /* \"#utility.yul\":11281:11285   */\n      0x32\n        /* \"#utility.yul\":11278:11279   */\n      0x04\n        /* \"#utility.yul\":11271:11286   */\n      mstore\n        /* \"#utility.yul\":11305:11309   */\n      0x24\n        /* \"#utility.yul\":11302:11303   */\n      0x00\n        /* \"#utility.yul\":11295:11310   */\n      revert\n        /* \"#utility.yul\":11445:11562   */\n    tag_162:\n        /* \"#utility.yul\":11554:11555   */\n      0x00\n        /* \"#utility.yul\":11551:11552   */\n      dup1\n        /* \"#utility.yul\":11544:11556   */\n      revert\n        /* \"#utility.yul\":11568:11793   */\n    tag_186:\n        /* \"#utility.yul\":11708:11742   */\n      0x4f776e61626c653a206e6577206f776e657220697320746865207a65726f2061\n        /* \"#utility.yul\":11704:11705   */\n      0x00\n        /* \"#utility.yul\":11696:11702   */\n      dup3\n        /* \"#utility.yul\":11692:11706   */\n      add\n        /* \"#utility.yul\":11685:11743   */\n      mstore\n        /* \"#utility.yul\":11777:11785   */\n      0x6464726573730000000000000000000000000000000000000000000000000000\n        /* \"#utility.yul\":11772:11774   */\n      0x20\n        /* \"#utility.yul\":11764:11770   */\n      dup3\n        /* \"#utility.yul\":11760:11775   */\n      add\n        /* \"#utility.yul\":11753:11786   */\n      mstore\n        /* \"#utility.yul\":11568:11793   */\n      pop\n      jump\t// out\n        /* \"#utility.yul\":11799:11976   */\n    tag_191:\n        /* \"#utility.yul\":11939:11968   */\n      0x4c6f74746572792073657373696f6e2069732072756e6e696e672e0000000000\n        /* \"#utility.yul\":11935:11936   */\n      0x00\n        /* \"#utility.yul\":11927:11933   */\n      dup3\n        /* \"#utility.yul\":11923:11937   */\n      add\n        /* \"#utility.yul\":11916:11969   */\n      mstore\n        /* \"#utility.yul\":11799:11976   */\n      pop\n      jump\t// out\n        /* \"#utility.yul\":11982:12152   */\n    tag_196:\n        /* \"#utility.yul\":12122:12144   */\n      0x4572726f72207768656e2077697468647261772e000000000000000000000000\n        /* \"#utility.yul\":12118:12119   */\n      0x00\n        /* \"#utility.yul\":12110:12116   */\n      dup3\n        /* \"#utility.yul\":12106:12120   */\n      add\n        /* \"#utility.yul\":12099:12145   */\n      mstore\n        /* \"#utility.yul\":11982:12152   */\n      pop\n      jump\t// out\n        /* \"#utility.yul\":12158:12334   */\n    tag_201:\n        /* \"#utility.yul\":12298:12326   */\n      0x4c6f74746572792073657373696f6e2077617320656e6465642e000000000000\n        /* \"#utility.yul\":12294:12295   */\n      0x00\n        /* \"#utility.yul\":12286:12292   */\n      dup3\n        /* \"#utility.yul\":12282:12296   */\n      add\n        /* \"#utility.yul\":12275:12327   */\n      mstore\n        /* \"#utility.yul\":12158:12334   */\n      pop\n      jump\t// out\n        /* \"#utility.yul\":12340:12506   */\n    tag_206:\n        /* \"#utility.yul\":12480:12498   */\n      0x4572726f72207768656e206275726e2e00000000000000000000000000000000\n        /* \"#utility.yul\":12476:12477   */\n      0x00\n        /* \"#utility.yul\":12468:12474   */\n      dup3\n        /* \"#utility.yul\":12464:12478   */\n      add\n        /* \"#utility.yul\":12457:12499   */\n      mstore\n        /* \"#utility.yul\":12340:12506   */\n      pop\n      jump\t// out\n        /* \"#utility.yul\":12512:12694   */\n    tag_211:\n        /* \"#utility.yul\":12652:12686   */\n      0x4f776e61626c653a2063616c6c6572206973206e6f7420746865206f776e6572\n        /* \"#utility.yul\":12648:12649   */\n      0x00\n        /* \"#utility.yul\":12640:12646   */\n      dup3\n        /* \"#utility.yul\":12636:12650   */\n      add\n        /* \"#utility.yul\":12629:12687   */\n      mstore\n        /* \"#utility.yul\":12512:12694   */\n      pop\n      jump\t// out\n        /* \"#utility.yul\":12700:12879   */\n    tag_216:\n        /* \"#utility.yul\":12840:12871   */\n      0x5573657220646f6e277420616c6c6f7720746f2077697468647261772e000000\n        /* \"#utility.yul\":12836:12837   */\n      0x00\n        /* \"#utility.yul\":12828:12834   */\n      dup3\n        /* \"#utility.yul\":12824:12838   */\n      add\n        /* \"#utility.yul\":12817:12872   */\n      mstore\n        /* \"#utility.yul\":12700:12879   */\n      pop\n      jump\t// out\n        /* \"#utility.yul\":12885:13007   */\n    tag_154:\n        /* \"#utility.yul\":12958:12982   */\n      tag_293\n        /* \"#utility.yul\":12976:12981   */\n      dup2\n        /* \"#utility.yul\":12958:12982   */\n      tag_172\n      jump\t// in\n    tag_293:\n        /* \"#utility.yul\":12951:12956   */\n      dup2\n        /* \"#utility.yul\":12948:12983   */\n      eq\n        /* \"#utility.yul\":12938:13001   */\n      tag_294\n      jumpi\n        /* \"#utility.yul\":12997:12998   */\n      0x00\n        /* \"#utility.yul\":12994:12995   */\n      dup1\n        /* \"#utility.yul\":12987:12999   */\n      revert\n        /* \"#utility.yul\":12938:13001   */\n    tag_294:\n        /* \"#utility.yul\":12885:13007   */\n      pop\n      jump\t// out\n        /* \"#utility.yul\":13013:13135   */\n    tag_158:\n        /* \"#utility.yul\":13086:13110   */\n      tag_296\n        /* \"#utility.yul\":13104:13109   */\n      dup2\n        /* \"#utility.yul\":13086:13110   */\n      tag_220\n      jump\t// in\n    tag_296:\n        /* \"#utility.yul\":13079:13084   */\n      dup2\n        /* \"#utility.yul\":13076:13111   */\n      eq\n        /* \"#utility.yul\":13066:13129   */\n      tag_297\n      jumpi\n        /* \"#utility.yul\":13125:13126   */\n      0x00\n        /* \"#utility.yul\":13122:13123   */\n      dup1\n        /* \"#utility.yul\":13115:13127   */\n      revert\n        /* \"#utility.yul\":13066:13129   */\n    tag_297:\n        /* \"#utility.yul\":13013:13135   */\n      pop\n      jump\t// out\n\n    auxdata: 0xa26469706673582212205389f618b698a68cafe2d9fd9025035b320aca596488c5a69741adbd9ccc2e9864736f6c63430008070033\n}\n",
				"bytecode": {
					"linkReferences": {},
					"object": "608060405260008060146101000a81548160ff02191690831515021790555034801561002a57600080fd5b5061004761003c61004c60201b60201c565b61005460201b60201c565b610118565b600033905090565b60008060009054906101000a900473ffffffffffffffffffffffffffffffffffffffff169050816000806101000a81548173ffffffffffffffffffffffffffffffffffffffff021916908373ffffffffffffffffffffffffffffffffffffffff1602179055508173ffffffffffffffffffffffffffffffffffffffff168173ffffffffffffffffffffffffffffffffffffffff167f8be0079c531659141344cd1fd0a4f28419497f9722a3daafe3b4186f6b6457e060405160405180910390a35050565b61123d806101276000396000f3fe608060405234801561001057600080fd5b50600436106100625760003560e01c8063313c137614610067578063715018a6146100715780638da5cb5b1461007b57806399df197414610099578063edca914c146100b5578063f2fde38b146100bf575b600080fd5b61006f6100db565b005b6100796101c2565b005b61008361024a565b6040516100909190610d22565b60405180910390f35b6100b360048036038101906100ae9190610b87565b610273565b005b6100bd610383565b005b6100d960048036038101906100d49190610b5a565b6103b3565b005b6100e36104ab565b73ffffffffffffffffffffffffffffffffffffffff1661010161024a565b73ffffffffffffffffffffffffffffffffffffffff1614610157576040517f08c379a000000000000000000000000000000000000000000000000000000000815260040161014e90610e3d565b60405180910390fd5b600060149054906101000a900460ff166101a6576040517f08c379a000000000000000000000000000000000000000000000000000000000815260040161019d90610dfd565b60405180910390fd5b60008060146101000a81548160ff021916908315150217905550565b6101ca6104ab565b73ffffffffffffffffffffffffffffffffffffffff166101e861024a565b73ffffffffffffffffffffffffffffffffffffffff161461023e576040517f08c379a000000000000000000000000000000000000000000000000000000000815260040161023590610e3d565b60405180910390fd5b61024860006104b3565b565b60008060009054906101000a900473ffffffffffffffffffffffffffffffffffffffff16905090565b61027b6104ab565b73ffffffffffffffffffffffffffffffffffffffff1661029961024a565b73ffffffffffffffffffffffffffffffffffffffff16146102ef576040517f08c379a00000000000000000000000000000000000000000000000000000000081526004016102e690610e3d565b60405180910390fd5b600060149054906101000a900460ff1661033e576040517f08c379a000000000000000000000000000000000000000000000000000000000815260040161033590610dbd565b60405180910390fd5b8160068190555080600781905550600060058190555061035c610577565b61036461063a565b6001600060146101000a81548160ff0219169083151502179055505050565b61038e6008546106b1565b6103b1600a60016008546103a29190610ef0565b6103ac9190610ebf565b610948565b565b6103bb6104ab565b73ffffffffffffffffffffffffffffffffffffffff166103d961024a565b73ffffffffffffffffffffffffffffffffffffffff161461042f576040517f08c379a000000000000000000000000000000000000000000000000000000000815260040161042690610e3d565b60405180910390fd5b600073ffffffffffffffffffffffffffffffffffffffff168173ffffffffffffffffffffffffffffffffffffffff16141561049f576040517f08c379a000000000000000000000000000000000000000000000000000000000815260040161049690610d9d565b60405180910390fd5b6104a8816104b3565b50565b600033905090565b60008060009054906101000a900473ffffffffffffffffffffffffffffffffffffffff169050816000806101000a81548173ffffffffffffffffffffffffffffffffffffffff021916908373ffffffffffffffffffffffffffffffffffffffff1602179055508173ffffffffffffffffffffffffffffffffffffffff168173ffffffffffffffffffffffffffffffffffffffff167f8be0079c531659141344cd1fd0a4f28419497f9722a3daafe3b4186f6b6457e060405160405180910390a35050565b60005b6001805490508110156106295760006001828154811061059d5761059c611060565b5b9060005260206000200160009054906101000a900473ffffffffffffffffffffffffffffffffffffffff169050600260008273ffffffffffffffffffffffffffffffffffffffff1673ffffffffffffffffffffffffffffffffffffffff16815260200190815260200160002060006106159190610a86565b50808061062190610fb9565b91505061057a565b50600160006106389190610aaa565b565b60005b6003805490508110156106a0576000600382815481106106605761065f611060565b5b9060005260206000200154905060046000828152602001908152602001600020600061068c9190610aaa565b50808061069890610fb9565b91505061063d565b50600360006106af9190610acb565b565b60008073ffffffffffffffffffffffffffffffffffffffff1630836040516024016106dd929190610d74565b6040516020818303038152906040527f8b069f2a000000000000000000000000000000000000000000000000000000007bffffffffffffffffffffffffffffffffffffffffffffffffffffffff19166020820180517bffffffffffffffffffffffffffffffffffffffffffffffffffffffff83818316178352505050506040516107679190610d0b565b6000604051808303816000865af19150503d80600081146107a4576040519150601f19603f3d011682016040523d82523d6000602084013e6107a9565b606091505b50509050806107ed576040517f08c379a00000000000000000000000000000000000000000000000000000000081526004016107e490610e5d565b60405180910390fd5b60008073ffffffffffffffffffffffffffffffffffffffff163330600a6009876108179190610ef0565b6108219190610ebf565b60405160240161083393929190610d3d565b6040516020818303038152906040527fb642fe57000000000000000000000000000000000000000000000000000000007bffffffffffffffffffffffffffffffffffffffffffffffffffffffff19166020820180517bffffffffffffffffffffffffffffffffffffffffffffffffffffffff83818316178352505050506040516108bd9190610d0b565b6000604051808303816000865af19150503d80600081146108fa576040519150601f19603f3d011682016040523d82523d6000602084013e6108ff565b606091505b5050905080610943576040517f08c379a000000000000000000000000000000000000000000000000000000000815260040161093a90610ddd565b60405180910390fd5b505050565b60008073ffffffffffffffffffffffffffffffffffffffff16826040516024016109729190610e7d565b6040516020818303038152906040527f42966c68000000000000000000000000000000000000000000000000000000007bffffffffffffffffffffffffffffffffffffffffffffffffffffffff19166020820180517bffffffffffffffffffffffffffffffffffffffffffffffffffffffff83818316178352505050506040516109fc9190610d0b565b6000604051808303816000865af19150503d8060008114610a39576040519150601f19603f3d011682016040523d82523d6000602084013e610a3e565b606091505b5050905080610a82576040517f08c379a0000000000000000000000000000000000000000000000000000000008152600401610a7990610e1d565b60405180910390fd5b5050565b5080546000825560020290600052602060002090810190610aa79190610aec565b50565b5080546000825590600052602060002090810190610ac89190610b13565b50565b5080546000825590600052602060002090810190610ae99190610b13565b50565b5b80821115610b0f57600080820160009055600182016000905550600201610aed565b5090565b5b80821115610b2c576000816000905550600101610b14565b5090565b600081359050610b3f816111d9565b92915050565b600081359050610b54816111f0565b92915050565b600060208284031215610b7057610b6f61108f565b5b6000610b7e84828501610b30565b91505092915050565b60008060408385031215610b9e57610b9d61108f565b5b6000610bac85828601610b45565b9250506020610bbd85828601610b45565b9150509250929050565b610bd081610f4a565b82525050565b6000610be182610e98565b610beb8185610ea3565b9350610bfb818560208601610f86565b80840191505092915050565b6000610c14602683610eae565b9150610c1f82611094565b604082019050919050565b6000610c37601b83610eae565b9150610c42826110e3565b602082019050919050565b6000610c5a601483610eae565b9150610c658261110c565b602082019050919050565b6000610c7d601a83610eae565b9150610c8882611135565b602082019050919050565b6000610ca0601083610eae565b9150610cab8261115e565b602082019050919050565b6000610cc3602083610eae565b9150610cce82611187565b602082019050919050565b6000610ce6601d83610eae565b9150610cf1826111b0565b602082019050919050565b610d0581610f7c565b82525050565b6000610d178284610bd6565b915081905092915050565b6000602082019050610d376000830184610bc7565b92915050565b6000606082019050610d526000830186610bc7565b610d5f6020830185610bc7565b610d6c6040830184610cfc565b949350505050565b6000604082019050610d896000830185610bc7565b610d966020830184610cfc565b9392505050565b60006020820190508181036000830152610db681610c07565b9050919050565b60006020820190508181036000830152610dd681610c2a565b9050919050565b60006020820190508181036000830152610df681610c4d565b9050919050565b60006020820190508181036000830152610e1681610c70565b9050919050565b60006020820190508181036000830152610e3681610c93565b9050919050565b60006020820190508181036000830152610e5681610cb6565b9050919050565b60006020820190508181036000830152610e7681610cd9565b9050919050565b6000602082019050610e926000830184610cfc565b92915050565b600081519050919050565b600081905092915050565b600082825260208201905092915050565b6000610eca82610f7c565b9150610ed583610f7c565b925082610ee557610ee4611031565b5b828204905092915050565b6000610efb82610f7c565b9150610f0683610f7c565b9250817fffffffffffffffffffffffffffffffffffffffffffffffffffffffffffffffff0483118215151615610f3f57610f3e611002565b5b828202905092915050565b6000610f5582610f5c565b9050919050565b600073ffffffffffffffffffffffffffffffffffffffff82169050919050565b6000819050919050565b60005b83811015610fa4578082015181840152602081019050610f89565b83811115610fb3576000848401525b50505050565b6000610fc482610f7c565b91507fffffffffffffffffffffffffffffffffffffffffffffffffffffffffffffffff821415610ff757610ff6611002565b5b600182019050919050565b7f4e487b7100000000000000000000000000000000000000000000000000000000600052601160045260246000fd5b7f4e487b7100000000000000000000000000000000000000000000000000000000600052601260045260246000fd5b7f4e487b7100000000000000000000000000000000000000000000000000000000600052603260045260246000fd5b600080fd5b7f4f776e61626c653a206e6577206f776e657220697320746865207a65726f206160008201527f6464726573730000000000000000000000000000000000000000000000000000602082015250565b7f4c6f74746572792073657373696f6e2069732072756e6e696e672e0000000000600082015250565b7f4572726f72207768656e2077697468647261772e000000000000000000000000600082015250565b7f4c6f74746572792073657373696f6e2077617320656e6465642e000000000000600082015250565b7f4572726f72207768656e206275726e2e00000000000000000000000000000000600082015250565b7f4f776e61626c653a2063616c6c6572206973206e6f7420746865206f776e6572600082015250565b7f5573657220646f6e277420616c6c6f7720746f2077697468647261772e000000600082015250565b6111e281610f4a565b81146111ed57600080fd5b50565b6111f981610f7c565b811461120457600080fd5b5056fea26469706673582212205389f618b698a68cafe2d9fd9025035b320aca596488c5a69741adbd9ccc2e9864736f6c63430008070033",
					"opcodes": "PUSH1 0x80 PUSH1 0x40 MSTORE PUSH1 0x0 DUP1 PUSH1 0x14 PUSH2 0x100 EXP DUP2 SLOAD DUP2 PUSH1 0xFF MUL NOT AND SWAP1 DUP4 ISZERO ISZERO MUL OR SWAP1 SSTORE POP CALLVALUE DUP1 ISZERO PUSH2 0x2A JUMPI PUSH1 0x0 DUP1 REVERT JUMPDEST POP PUSH2 0x47 PUSH2 0x3C PUSH2 0x4C PUSH1 0x20 SHL PUSH1 0x20 SHR JUMP JUMPDEST PUSH2 0x54 PUSH1 0x20 SHL PUSH1 0x20 SHR JUMP JUMPDEST PUSH2 0x118 JUMP JUMPDEST PUSH1 0x0 CALLER SWAP1 POP SWAP1 JUMP JUMPDEST PUSH1 0x0 DUP1 PUSH1 0x0 SWAP1 SLOAD SWAP1 PUSH2 0x100 EXP SWAP1 DIV PUSH20 0xFFFFFFFFFFFFFFFFFFFFFFFFFFFFFFFFFFFFFFFF AND SWAP1 POP DUP2 PUSH1 0x0 DUP1 PUSH2 0x100 EXP DUP2 SLOAD DUP2 PUSH20 0xFFFFFFFFFFFFFFFFFFFFFFFFFFFFFFFFFFFFFFFF MUL NOT AND SWAP1 DUP4 PUSH20 0xFFFFFFFFFFFFFFFFFFFFFFFFFFFFFFFFFFFFFFFF AND MUL OR SWAP1 SSTORE POP DUP2 PUSH20 0xFFFFFFFFFFFFFFFFFFFFFFFFFFFFFFFFFFFFFFFF AND DUP2 PUSH20 0xFFFFFFFFFFFFFFFFFFFFFFFFFFFFFFFFFFFFFFFF AND PUSH32 0x8BE0079C531659141344CD1FD0A4F28419497F9722A3DAAFE3B4186F6B6457E0 PUSH1 0x40 MLOAD PUSH1 0x40 MLOAD DUP1 SWAP2 SUB SWAP1 LOG3 POP POP JUMP JUMPDEST PUSH2 0x123D DUP1 PUSH2 0x127 PUSH1 0x0 CODECOPY PUSH1 0x0 RETURN INVALID PUSH1 0x80 PUSH1 0x40 MSTORE CALLVALUE DUP1 ISZERO PUSH2 0x10 JUMPI PUSH1 0x0 DUP1 REVERT JUMPDEST POP PUSH1 0x4 CALLDATASIZE LT PUSH2 0x62 JUMPI PUSH1 0x0 CALLDATALOAD PUSH1 0xE0 SHR DUP1 PUSH4 0x313C1376 EQ PUSH2 0x67 JUMPI DUP1 PUSH4 0x715018A6 EQ PUSH2 0x71 JUMPI DUP1 PUSH4 0x8DA5CB5B EQ PUSH2 0x7B JUMPI DUP1 PUSH4 0x99DF1974 EQ PUSH2 0x99 JUMPI DUP1 PUSH4 0xEDCA914C EQ PUSH2 0xB5 JUMPI DUP1 PUSH4 0xF2FDE38B EQ PUSH2 0xBF JUMPI JUMPDEST PUSH1 0x0 DUP1 REVERT JUMPDEST PUSH2 0x6F PUSH2 0xDB JUMP JUMPDEST STOP JUMPDEST PUSH2 0x79 PUSH2 0x1C2 JUMP JUMPDEST STOP JUMPDEST PUSH2 0x83 PUSH2 0x24A JUMP JUMPDEST PUSH1 0x40 MLOAD PUSH2 0x90 SWAP2 SWAP1 PUSH2 0xD22 JUMP JUMPDEST PUSH1 0x40 MLOAD DUP1 SWAP2 SUB SWAP1 RETURN JUMPDEST PUSH2 0xB3 PUSH1 0x4 DUP1 CALLDATASIZE SUB DUP2 ADD SWAP1 PUSH2 0xAE SWAP2 SWAP1 PUSH2 0xB87 JUMP JUMPDEST PUSH2 0x273 JUMP JUMPDEST STOP JUMPDEST PUSH2 0xBD PUSH2 0x383 JUMP JUMPDEST STOP JUMPDEST PUSH2 0xD9 PUSH1 0x4 DUP1 CALLDATASIZE SUB DUP2 ADD SWAP1 PUSH2 0xD4 SWAP2 SWAP1 PUSH2 0xB5A JUMP JUMPDEST PUSH2 0x3B3 JUMP JUMPDEST STOP JUMPDEST PUSH2 0xE3 PUSH2 0x4AB JUMP JUMPDEST PUSH20 0xFFFFFFFFFFFFFFFFFFFFFFFFFFFFFFFFFFFFFFFF AND PUSH2 0x101 PUSH2 0x24A JUMP JUMPDEST PUSH20 0xFFFFFFFFFFFFFFFFFFFFFFFFFFFFFFFFFFFFFFFF AND EQ PUSH2 0x157 JUMPI PUSH1 0x40 MLOAD PUSH32 0x8C379A000000000000000000000000000000000000000000000000000000000 DUP2 MSTORE PUSH1 0x4 ADD PUSH2 0x14E SWAP1 PUSH2 0xE3D JUMP JUMPDEST PUSH1 0x40 MLOAD DUP1 SWAP2 SUB SWAP1 REVERT JUMPDEST PUSH1 0x0 PUSH1 0x14 SWAP1 SLOAD SWAP1 PUSH2 0x100 EXP SWAP1 DIV PUSH1 0xFF AND PUSH2 0x1A6 JUMPI PUSH1 0x40 MLOAD PUSH32 0x8C379A000000000000000000000000000000000000000000000000000000000 DUP2 MSTORE PUSH1 0x4 ADD PUSH2 0x19D SWAP1 PUSH2 0xDFD JUMP JUMPDEST PUSH1 0x40 MLOAD DUP1 SWAP2 SUB SWAP1 REVERT JUMPDEST PUSH1 0x0 DUP1 PUSH1 0x14 PUSH2 0x100 EXP DUP2 SLOAD DUP2 PUSH1 0xFF MUL NOT AND SWAP1 DUP4 ISZERO ISZERO MUL OR SWAP1 SSTORE POP JUMP JUMPDEST PUSH2 0x1CA PUSH2 0x4AB JUMP JUMPDEST PUSH20 0xFFFFFFFFFFFFFFFFFFFFFFFFFFFFFFFFFFFFFFFF AND PUSH2 0x1E8 PUSH2 0x24A JUMP JUMPDEST PUSH20 0xFFFFFFFFFFFFFFFFFFFFFFFFFFFFFFFFFFFFFFFF AND EQ PUSH2 0x23E JUMPI PUSH1 0x40 MLOAD PUSH32 0x8C379A000000000000000000000000000000000000000000000000000000000 DUP2 MSTORE PUSH1 0x4 ADD PUSH2 0x235 SWAP1 PUSH2 0xE3D JUMP JUMPDEST PUSH1 0x40 MLOAD DUP1 SWAP2 SUB SWAP1 REVERT JUMPDEST PUSH2 0x248 PUSH1 0x0 PUSH2 0x4B3 JUMP JUMPDEST JUMP JUMPDEST PUSH1 0x0 DUP1 PUSH1 0x0 SWAP1 SLOAD SWAP1 PUSH2 0x100 EXP SWAP1 DIV PUSH20 0xFFFFFFFFFFFFFFFFFFFFFFFFFFFFFFFFFFFFFFFF AND SWAP1 POP SWAP1 JUMP JUMPDEST PUSH2 0x27B PUSH2 0x4AB JUMP JUMPDEST PUSH20 0xFFFFFFFFFFFFFFFFFFFFFFFFFFFFFFFFFFFFFFFF AND PUSH2 0x299 PUSH2 0x24A JUMP JUMPDEST PUSH20 0xFFFFFFFFFFFFFFFFFFFFFFFFFFFFFFFFFFFFFFFF AND EQ PUSH2 0x2EF JUMPI PUSH1 0x40 MLOAD PUSH32 0x8C379A000000000000000000000000000000000000000000000000000000000 DUP2 MSTORE PUSH1 0x4 ADD PUSH2 0x2E6 SWAP1 PUSH2 0xE3D JUMP JUMPDEST PUSH1 0x40 MLOAD DUP1 SWAP2 SUB SWAP1 REVERT JUMPDEST PUSH1 0x0 PUSH1 0x14 SWAP1 SLOAD SWAP1 PUSH2 0x100 EXP SWAP1 DIV PUSH1 0xFF AND PUSH2 0x33E JUMPI PUSH1 0x40 MLOAD PUSH32 0x8C379A000000000000000000000000000000000000000000000000000000000 DUP2 MSTORE PUSH1 0x4 ADD PUSH2 0x335 SWAP1 PUSH2 0xDBD JUMP JUMPDEST PUSH1 0x40 MLOAD DUP1 SWAP2 SUB SWAP1 REVERT JUMPDEST DUP2 PUSH1 0x6 DUP2 SWAP1 SSTORE POP DUP1 PUSH1 0x7 DUP2 SWAP1 SSTORE POP PUSH1 0x0 PUSH1 0x5 DUP2 SWAP1 SSTORE POP PUSH2 0x35C PUSH2 0x577 JUMP JUMPDEST PUSH2 0x364 PUSH2 0x63A JUMP JUMPDEST PUSH1 0x1 PUSH1 0x0 PUSH1 0x14 PUSH2 0x100 EXP DUP2 SLOAD DUP2 PUSH1 0xFF MUL NOT AND SWAP1 DUP4 ISZERO ISZERO MUL OR SWAP1 SSTORE POP POP POP JUMP JUMPDEST PUSH2 0x38E PUSH1 0x8 SLOAD PUSH2 0x6B1 JUMP JUMPDEST PUSH2 0x3B1 PUSH1 0xA PUSH1 0x1 PUSH1 0x8 SLOAD PUSH2 0x3A2 SWAP2 SWAP1 PUSH2 0xEF0 JUMP JUMPDEST PUSH2 0x3AC SWAP2 SWAP1 PUSH2 0xEBF JUMP JUMPDEST PUSH2 0x948 JUMP JUMPDEST JUMP JUMPDEST PUSH2 0x3BB PUSH2 0x4AB JUMP JUMPDEST PUSH20 0xFFFFFFFFFFFFFFFFFFFFFFFFFFFFFFFFFFFFFFFF AND PUSH2 0x3D9 PUSH2 0x24A JUMP JUMPDEST PUSH20 0xFFFFFFFFFFFFFFFFFFFFFFFFFFFFFFFFFFFFFFFF AND EQ PUSH2 0x42F JUMPI PUSH1 0x40 MLOAD PUSH32 0x8C379A000000000000000000000000000000000000000000000000000000000 DUP2 MSTORE PUSH1 0x4 ADD PUSH2 0x426 SWAP1 PUSH2 0xE3D JUMP JUMPDEST PUSH1 0x40 MLOAD DUP1 SWAP2 SUB SWAP1 REVERT JUMPDEST PUSH1 0x0 PUSH20 0xFFFFFFFFFFFFFFFFFFFFFFFFFFFFFFFFFFFFFFFF AND DUP2 PUSH20 0xFFFFFFFFFFFFFFFFFFFFFFFFFFFFFFFFFFFFFFFF AND EQ ISZERO PUSH2 0x49F JUMPI PUSH1 0x40 MLOAD PUSH32 0x8C379A000000000000000000000000000000000000000000000000000000000 DUP2 MSTORE PUSH1 0x4 ADD PUSH2 0x496 SWAP1 PUSH2 0xD9D JUMP JUMPDEST PUSH1 0x40 MLOAD DUP1 SWAP2 SUB SWAP1 REVERT JUMPDEST PUSH2 0x4A8 DUP2 PUSH2 0x4B3 JUMP JUMPDEST POP JUMP JUMPDEST PUSH1 0x0 CALLER SWAP1 POP SWAP1 JUMP JUMPDEST PUSH1 0x0 DUP1 PUSH1 0x0 SWAP1 SLOAD SWAP1 PUSH2 0x100 EXP SWAP1 DIV PUSH20 0xFFFFFFFFFFFFFFFFFFFFFFFFFFFFFFFFFFFFFFFF AND SWAP1 POP DUP2 PUSH1 0x0 DUP1 PUSH2 0x100 EXP DUP2 SLOAD DUP2 PUSH20 0xFFFFFFFFFFFFFFFFFFFFFFFFFFFFFFFFFFFFFFFF MUL NOT AND SWAP1 DUP4 PUSH20 0xFFFFFFFFFFFFFFFFFFFFFFFFFFFFFFFFFFFFFFFF AND MUL OR SWAP1 SSTORE POP DUP2 PUSH20 0xFFFFFFFFFFFFFFFFFFFFFFFFFFFFFFFFFFFFFFFF AND DUP2 PUSH20 0xFFFFFFFFFFFFFFFFFFFFFFFFFFFFFFFFFFFFFFFF AND PUSH32 0x8BE0079C531659141344CD1FD0A4F28419497F9722A3DAAFE3B4186F6B6457E0 PUSH1 0x40 MLOAD PUSH1 0x40 MLOAD DUP1 SWAP2 SUB SWAP1 LOG3 POP POP JUMP JUMPDEST PUSH1 0x0 JUMPDEST PUSH1 0x1 DUP1 SLOAD SWAP1 POP DUP2 LT ISZERO PUSH2 0x629 JUMPI PUSH1 0x0 PUSH1 0x1 DUP3 DUP2 SLOAD DUP2 LT PUSH2 0x59D JUMPI PUSH2 0x59C PUSH2 0x1060 JUMP JUMPDEST JUMPDEST SWAP1 PUSH1 0x0 MSTORE PUSH1 0x20 PUSH1 0x0 KECCAK256 ADD PUSH1 0x0 SWAP1 SLOAD SWAP1 PUSH2 0x100 EXP SWAP1 DIV PUSH20 0xFFFFFFFFFFFFFFFFFFFFFFFFFFFFFFFFFFFFFFFF AND SWAP1 POP PUSH1 0x2 PUSH1 0x0 DUP3 PUSH20 0xFFFFFFFFFFFFFFFFFFFFFFFFFFFFFFFFFFFFFFFF AND PUSH20 0xFFFFFFFFFFFFFFFFFFFFFFFFFFFFFFFFFFFFFFFF AND DUP2 MSTORE PUSH1 0x20 ADD SWAP1 DUP2 MSTORE PUSH1 0x20 ADD PUSH1 0x0 KECCAK256 PUSH1 0x0 PUSH2 0x615 SWAP2 SWAP1 PUSH2 0xA86 JUMP JUMPDEST POP DUP1 DUP1 PUSH2 0x621 SWAP1 PUSH2 0xFB9 JUMP JUMPDEST SWAP2 POP POP PUSH2 0x57A JUMP JUMPDEST POP PUSH1 0x1 PUSH1 0x0 PUSH2 0x638 SWAP2 SWAP1 PUSH2 0xAAA JUMP JUMPDEST JUMP JUMPDEST PUSH1 0x0 JUMPDEST PUSH1 0x3 DUP1 SLOAD SWAP1 POP DUP2 LT ISZERO PUSH2 0x6A0 JUMPI PUSH1 0x0 PUSH1 0x3 DUP3 DUP2 SLOAD DUP2 LT PUSH2 0x660 JUMPI PUSH2 0x65F PUSH2 0x1060 JUMP JUMPDEST JUMPDEST SWAP1 PUSH1 0x0 MSTORE PUSH1 0x20 PUSH1 0x0 KECCAK256 ADD SLOAD SWAP1 POP PUSH1 0x4 PUSH1 0x0 DUP3 DUP2 MSTORE PUSH1 0x20 ADD SWAP1 DUP2 MSTORE PUSH1 0x20 ADD PUSH1 0x0 KECCAK256 PUSH1 0x0 PUSH2 0x68C SWAP2 SWAP1 PUSH2 0xAAA JUMP JUMPDEST POP DUP1 DUP1 PUSH2 0x698 SWAP1 PUSH2 0xFB9 JUMP JUMPDEST SWAP2 POP POP PUSH2 0x63D JUMP JUMPDEST POP PUSH1 0x3 PUSH1 0x0 PUSH2 0x6AF SWAP2 SWAP1 PUSH2 0xACB JUMP JUMPDEST JUMP JUMPDEST PUSH1 0x0 DUP1 PUSH20 0xFFFFFFFFFFFFFFFFFFFFFFFFFFFFFFFFFFFFFFFF AND ADDRESS DUP4 PUSH1 0x40 MLOAD PUSH1 0x24 ADD PUSH2 0x6DD SWAP3 SWAP2 SWAP1 PUSH2 0xD74 JUMP JUMPDEST PUSH1 0x40 MLOAD PUSH1 0x20 DUP2 DUP4 SUB SUB DUP2 MSTORE SWAP1 PUSH1 0x40 MSTORE PUSH32 0x8B069F2A00000000000000000000000000000000000000000000000000000000 PUSH28 0xFFFFFFFFFFFFFFFFFFFFFFFFFFFFFFFFFFFFFFFFFFFFFFFFFFFFFFFF NOT AND PUSH1 0x20 DUP3 ADD DUP1 MLOAD PUSH28 0xFFFFFFFFFFFFFFFFFFFFFFFFFFFFFFFFFFFFFFFFFFFFFFFFFFFFFFFF DUP4 DUP2 DUP4 AND OR DUP4 MSTORE POP POP POP POP PUSH1 0x40 MLOAD PUSH2 0x767 SWAP2 SWAP1 PUSH2 0xD0B JUMP JUMPDEST PUSH1 0x0 PUSH1 0x40 MLOAD DUP1 DUP4 SUB DUP2 PUSH1 0x0 DUP7 GAS CALL SWAP2 POP POP RETURNDATASIZE DUP1 PUSH1 0x0 DUP2 EQ PUSH2 0x7A4 JUMPI PUSH1 0x40 MLOAD SWAP2 POP PUSH1 0x1F NOT PUSH1 0x3F RETURNDATASIZE ADD AND DUP3 ADD PUSH1 0x40 MSTORE RETURNDATASIZE DUP3 MSTORE RETURNDATASIZE PUSH1 0x0 PUSH1 0x20 DUP5 ADD RETURNDATACOPY PUSH2 0x7A9 JUMP JUMPDEST PUSH1 0x60 SWAP2 POP JUMPDEST POP POP SWAP1 POP DUP1 PUSH2 0x7ED JUMPI PUSH1 0x40 MLOAD PUSH32 0x8C379A000000000000000000000000000000000000000000000000000000000 DUP2 MSTORE PUSH1 0x4 ADD PUSH2 0x7E4 SWAP1 PUSH2 0xE5D JUMP JUMPDEST PUSH1 0x40 MLOAD DUP1 SWAP2 SUB SWAP1 REVERT JUMPDEST PUSH1 0x0 DUP1 PUSH20 0xFFFFFFFFFFFFFFFFFFFFFFFFFFFFFFFFFFFFFFFF AND CALLER ADDRESS PUSH1 0xA PUSH1 0x9 DUP8 PUSH2 0x817 SWAP2 SWAP1 PUSH2 0xEF0 JUMP JUMPDEST PUSH2 0x821 SWAP2 SWAP1 PUSH2 0xEBF JUMP JUMPDEST PUSH1 0x40 MLOAD PUSH1 0x24 ADD PUSH2 0x833 SWAP4 SWAP3 SWAP2 SWAP1 PUSH2 0xD3D JUMP JUMPDEST PUSH1 0x40 MLOAD PUSH1 0x20 DUP2 DUP4 SUB SUB DUP2 MSTORE SWAP1 PUSH1 0x40 MSTORE PUSH32 0xB642FE5700000000000000000000000000000000000000000000000000000000 PUSH28 0xFFFFFFFFFFFFFFFFFFFFFFFFFFFFFFFFFFFFFFFFFFFFFFFFFFFFFFFF NOT AND PUSH1 0x20 DUP3 ADD DUP1 MLOAD PUSH28 0xFFFFFFFFFFFFFFFFFFFFFFFFFFFFFFFFFFFFFFFFFFFFFFFFFFFFFFFF DUP4 DUP2 DUP4 AND OR DUP4 MSTORE POP POP POP POP PUSH1 0x40 MLOAD PUSH2 0x8BD SWAP2 SWAP1 PUSH2 0xD0B JUMP JUMPDEST PUSH1 0x0 PUSH1 0x40 MLOAD DUP1 DUP4 SUB DUP2 PUSH1 0x0 DUP7 GAS CALL SWAP2 POP POP RETURNDATASIZE DUP1 PUSH1 0x0 DUP2 EQ PUSH2 0x8FA JUMPI PUSH1 0x40 MLOAD SWAP2 POP PUSH1 0x1F NOT PUSH1 0x3F RETURNDATASIZE ADD AND DUP3 ADD PUSH1 0x40 MSTORE RETURNDATASIZE DUP3 MSTORE RETURNDATASIZE PUSH1 0x0 PUSH1 0x20 DUP5 ADD RETURNDATACOPY PUSH2 0x8FF JUMP JUMPDEST PUSH1 0x60 SWAP2 POP JUMPDEST POP POP SWAP1 POP DUP1 PUSH2 0x943 JUMPI PUSH1 0x40 MLOAD PUSH32 0x8C379A000000000000000000000000000000000000000000000000000000000 DUP2 MSTORE PUSH1 0x4 ADD PUSH2 0x93A SWAP1 PUSH2 0xDDD JUMP JUMPDEST PUSH1 0x40 MLOAD DUP1 SWAP2 SUB SWAP1 REVERT JUMPDEST POP POP POP JUMP JUMPDEST PUSH1 0x0 DUP1 PUSH20 0xFFFFFFFFFFFFFFFFFFFFFFFFFFFFFFFFFFFFFFFF AND DUP3 PUSH1 0x40 MLOAD PUSH1 0x24 ADD PUSH2 0x972 SWAP2 SWAP1 PUSH2 0xE7D JUMP JUMPDEST PUSH1 0x40 MLOAD PUSH1 0x20 DUP2 DUP4 SUB SUB DUP2 MSTORE SWAP1 PUSH1 0x40 MSTORE PUSH32 0x42966C6800000000000000000000000000000000000000000000000000000000 PUSH28 0xFFFFFFFFFFFFFFFFFFFFFFFFFFFFFFFFFFFFFFFFFFFFFFFFFFFFFFFF NOT AND PUSH1 0x20 DUP3 ADD DUP1 MLOAD PUSH28 0xFFFFFFFFFFFFFFFFFFFFFFFFFFFFFFFFFFFFFFFFFFFFFFFFFFFFFFFF DUP4 DUP2 DUP4 AND OR DUP4 MSTORE POP POP POP POP PUSH1 0x40 MLOAD PUSH2 0x9FC SWAP2 SWAP1 PUSH2 0xD0B JUMP JUMPDEST PUSH1 0x0 PUSH1 0x40 MLOAD DUP1 DUP4 SUB DUP2 PUSH1 0x0 DUP7 GAS CALL SWAP2 POP POP RETURNDATASIZE DUP1 PUSH1 0x0 DUP2 EQ PUSH2 0xA39 JUMPI PUSH1 0x40 MLOAD SWAP2 POP PUSH1 0x1F NOT PUSH1 0x3F RETURNDATASIZE ADD AND DUP3 ADD PUSH1 0x40 MSTORE RETURNDATASIZE DUP3 MSTORE RETURNDATASIZE PUSH1 0x0 PUSH1 0x20 DUP5 ADD RETURNDATACOPY PUSH2 0xA3E JUMP JUMPDEST PUSH1 0x60 SWAP2 POP JUMPDEST POP POP SWAP1 POP DUP1 PUSH2 0xA82 JUMPI PUSH1 0x40 MLOAD PUSH32 0x8C379A000000000000000000000000000000000000000000000000000000000 DUP2 MSTORE PUSH1 0x4 ADD PUSH2 0xA79 SWAP1 PUSH2 0xE1D JUMP JUMPDEST PUSH1 0x40 MLOAD DUP1 SWAP2 SUB SWAP1 REVERT JUMPDEST POP POP JUMP JUMPDEST POP DUP1 SLOAD PUSH1 0x0 DUP3 SSTORE PUSH1 0x2 MUL SWAP1 PUSH1 0x0 MSTORE PUSH1 0x20 PUSH1 0x0 KECCAK256 SWAP1 DUP2 ADD SWAP1 PUSH2 0xAA7 SWAP2 SWAP1 PUSH2 0xAEC JUMP JUMPDEST POP JUMP JUMPDEST POP DUP1 SLOAD PUSH1 0x0 DUP3 SSTORE SWAP1 PUSH1 0x0 MSTORE PUSH1 0x20 PUSH1 0x0 KECCAK256 SWAP1 DUP2 ADD SWAP1 PUSH2 0xAC8 SWAP2 SWAP1 PUSH2 0xB13 JUMP JUMPDEST POP JUMP JUMPDEST POP DUP1 SLOAD PUSH1 0x0 DUP3 SSTORE SWAP1 PUSH1 0x0 MSTORE PUSH1 0x20 PUSH1 0x0 KECCAK256 SWAP1 DUP2 ADD SWAP1 PUSH2 0xAE9 SWAP2 SWAP1 PUSH2 0xB13 JUMP JUMPDEST POP JUMP JUMPDEST JUMPDEST DUP1 DUP3 GT ISZERO PUSH2 0xB0F JUMPI PUSH1 0x0 DUP1 DUP3 ADD PUSH1 0x0 SWAP1 SSTORE PUSH1 0x1 DUP3 ADD PUSH1 0x0 SWAP1 SSTORE POP PUSH1 0x2 ADD PUSH2 0xAED JUMP JUMPDEST POP SWAP1 JUMP JUMPDEST JUMPDEST DUP1 DUP3 GT ISZERO PUSH2 0xB2C JUMPI PUSH1 0x0 DUP2 PUSH1 0x0 SWAP1 SSTORE POP PUSH1 0x1 ADD PUSH2 0xB14 JUMP JUMPDEST POP SWAP1 JUMP JUMPDEST PUSH1 0x0 DUP2 CALLDATALOAD SWAP1 POP PUSH2 0xB3F DUP2 PUSH2 0x11D9 JUMP JUMPDEST SWAP3 SWAP2 POP POP JUMP JUMPDEST PUSH1 0x0 DUP2 CALLDATALOAD SWAP1 POP PUSH2 0xB54 DUP2 PUSH2 0x11F0 JUMP JUMPDEST SWAP3 SWAP2 POP POP JUMP JUMPDEST PUSH1 0x0 PUSH1 0x20 DUP3 DUP5 SUB SLT ISZERO PUSH2 0xB70 JUMPI PUSH2 0xB6F PUSH2 0x108F JUMP JUMPDEST JUMPDEST PUSH1 0x0 PUSH2 0xB7E DUP5 DUP3 DUP6 ADD PUSH2 0xB30 JUMP JUMPDEST SWAP2 POP POP SWAP3 SWAP2 POP POP JUMP JUMPDEST PUSH1 0x0 DUP1 PUSH1 0x40 DUP4 DUP6 SUB SLT ISZERO PUSH2 0xB9E JUMPI PUSH2 0xB9D PUSH2 0x108F JUMP JUMPDEST JUMPDEST PUSH1 0x0 PUSH2 0xBAC DUP6 DUP3 DUP7 ADD PUSH2 0xB45 JUMP JUMPDEST SWAP3 POP POP PUSH1 0x20 PUSH2 0xBBD DUP6 DUP3 DUP7 ADD PUSH2 0xB45 JUMP JUMPDEST SWAP2 POP POP SWAP3 POP SWAP3 SWAP1 POP JUMP JUMPDEST PUSH2 0xBD0 DUP2 PUSH2 0xF4A JUMP JUMPDEST DUP3 MSTORE POP POP JUMP JUMPDEST PUSH1 0x0 PUSH2 0xBE1 DUP3 PUSH2 0xE98 JUMP JUMPDEST PUSH2 0xBEB DUP2 DUP6 PUSH2 0xEA3 JUMP JUMPDEST SWAP4 POP PUSH2 0xBFB DUP2 DUP6 PUSH1 0x20 DUP7 ADD PUSH2 0xF86 JUMP JUMPDEST DUP1 DUP5 ADD SWAP2 POP POP SWAP3 SWAP2 POP POP JUMP JUMPDEST PUSH1 0x0 PUSH2 0xC14 PUSH1 0x26 DUP4 PUSH2 0xEAE JUMP JUMPDEST SWAP2 POP PUSH2 0xC1F DUP3 PUSH2 0x1094 JUMP JUMPDEST PUSH1 0x40 DUP3 ADD SWAP1 POP SWAP2 SWAP1 POP JUMP JUMPDEST PUSH1 0x0 PUSH2 0xC37 PUSH1 0x1B DUP4 PUSH2 0xEAE JUMP JUMPDEST SWAP2 POP PUSH2 0xC42 DUP3 PUSH2 0x10E3 JUMP JUMPDEST PUSH1 0x20 DUP3 ADD SWAP1 POP SWAP2 SWAP1 POP JUMP JUMPDEST PUSH1 0x0 PUSH2 0xC5A PUSH1 0x14 DUP4 PUSH2 0xEAE JUMP JUMPDEST SWAP2 POP PUSH2 0xC65 DUP3 PUSH2 0x110C JUMP JUMPDEST PUSH1 0x20 DUP3 ADD SWAP1 POP SWAP2 SWAP1 POP JUMP JUMPDEST PUSH1 0x0 PUSH2 0xC7D PUSH1 0x1A DUP4 PUSH2 0xEAE JUMP JUMPDEST SWAP2 POP PUSH2 0xC88 DUP3 PUSH2 0x1135 JUMP JUMPDEST PUSH1 0x20 DUP3 ADD SWAP1 POP SWAP2 SWAP1 POP JUMP JUMPDEST PUSH1 0x0 PUSH2 0xCA0 PUSH1 0x10 DUP4 PUSH2 0xEAE JUMP JUMPDEST SWAP2 POP PUSH2 0xCAB DUP3 PUSH2 0x115E JUMP JUMPDEST PUSH1 0x20 DUP3 ADD SWAP1 POP SWAP2 SWAP1 POP JUMP JUMPDEST PUSH1 0x0 PUSH2 0xCC3 PUSH1 0x20 DUP4 PUSH2 0xEAE JUMP JUMPDEST SWAP2 POP PUSH2 0xCCE DUP3 PUSH2 0x1187 JUMP JUMPDEST PUSH1 0x20 DUP3 ADD SWAP1 POP SWAP2 SWAP1 POP JUMP JUMPDEST PUSH1 0x0 PUSH2 0xCE6 PUSH1 0x1D DUP4 PUSH2 0xEAE JUMP JUMPDEST SWAP2 POP PUSH2 0xCF1 DUP3 PUSH2 0x11B0 JUMP JUMPDEST PUSH1 0x20 DUP3 ADD SWAP1 POP SWAP2 SWAP1 POP JUMP JUMPDEST PUSH2 0xD05 DUP2 PUSH2 0xF7C JUMP JUMPDEST DUP3 MSTORE POP POP JUMP JUMPDEST PUSH1 0x0 PUSH2 0xD17 DUP3 DUP5 PUSH2 0xBD6 JUMP JUMPDEST SWAP2 POP DUP2 SWAP1 POP SWAP3 SWAP2 POP POP JUMP JUMPDEST PUSH1 0x0 PUSH1 0x20 DUP3 ADD SWAP1 POP PUSH2 0xD37 PUSH1 0x0 DUP4 ADD DUP5 PUSH2 0xBC7 JUMP JUMPDEST SWAP3 SWAP2 POP POP JUMP JUMPDEST PUSH1 0x0 PUSH1 0x60 DUP3 ADD SWAP1 POP PUSH2 0xD52 PUSH1 0x0 DUP4 ADD DUP7 PUSH2 0xBC7 JUMP JUMPDEST PUSH2 0xD5F PUSH1 0x20 DUP4 ADD DUP6 PUSH2 0xBC7 JUMP JUMPDEST PUSH2 0xD6C PUSH1 0x40 DUP4 ADD DUP5 PUSH2 0xCFC JUMP JUMPDEST SWAP5 SWAP4 POP POP POP POP JUMP JUMPDEST PUSH1 0x0 PUSH1 0x40 DUP3 ADD SWAP1 POP PUSH2 0xD89 PUSH1 0x0 DUP4 ADD DUP6 PUSH2 0xBC7 JUMP JUMPDEST PUSH2 0xD96 PUSH1 0x20 DUP4 ADD DUP5 PUSH2 0xCFC JUMP JUMPDEST SWAP4 SWAP3 POP POP POP JUMP JUMPDEST PUSH1 0x0 PUSH1 0x20 DUP3 ADD SWAP1 POP DUP2 DUP2 SUB PUSH1 0x0 DUP4 ADD MSTORE PUSH2 0xDB6 DUP2 PUSH2 0xC07 JUMP JUMPDEST SWAP1 POP SWAP2 SWAP1 POP JUMP JUMPDEST PUSH1 0x0 PUSH1 0x20 DUP3 ADD SWAP1 POP DUP2 DUP2 SUB PUSH1 0x0 DUP4 ADD MSTORE PUSH2 0xDD6 DUP2 PUSH2 0xC2A JUMP JUMPDEST SWAP1 POP SWAP2 SWAP1 POP JUMP JUMPDEST PUSH1 0x0 PUSH1 0x20 DUP3 ADD SWAP1 POP DUP2 DUP2 SUB PUSH1 0x0 DUP4 ADD MSTORE PUSH2 0xDF6 DUP2 PUSH2 0xC4D JUMP JUMPDEST SWAP1 POP SWAP2 SWAP1 POP JUMP JUMPDEST PUSH1 0x0 PUSH1 0x20 DUP3 ADD SWAP1 POP DUP2 DUP2 SUB PUSH1 0x0 DUP4 ADD MSTORE PUSH2 0xE16 DUP2 PUSH2 0xC70 JUMP JUMPDEST SWAP1 POP SWAP2 SWAP1 POP JUMP JUMPDEST PUSH1 0x0 PUSH1 0x20 DUP3 ADD SWAP1 POP DUP2 DUP2 SUB PUSH1 0x0 DUP4 ADD MSTORE PUSH2 0xE36 DUP2 PUSH2 0xC93 JUMP JUMPDEST SWAP1 POP SWAP2 SWAP1 POP JUMP JUMPDEST PUSH1 0x0 PUSH1 0x20 DUP3 ADD SWAP1 POP DUP2 DUP2 SUB PUSH1 0x0 DUP4 ADD MSTORE PUSH2 0xE56 DUP2 PUSH2 0xCB6 JUMP JUMPDEST SWAP1 POP SWAP2 SWAP1 POP JUMP JUMPDEST PUSH1 0x0 PUSH1 0x20 DUP3 ADD SWAP1 POP DUP2 DUP2 SUB PUSH1 0x0 DUP4 ADD MSTORE PUSH2 0xE76 DUP2 PUSH2 0xCD9 JUMP JUMPDEST SWAP1 POP SWAP2 SWAP1 POP JUMP JUMPDEST PUSH1 0x0 PUSH1 0x20 DUP3 ADD SWAP1 POP PUSH2 0xE92 PUSH1 0x0 DUP4 ADD DUP5 PUSH2 0xCFC JUMP JUMPDEST SWAP3 SWAP2 POP POP JUMP JUMPDEST PUSH1 0x0 DUP2 MLOAD SWAP1 POP SWAP2 SWAP1 POP JUMP JUMPDEST PUSH1 0x0 DUP2 SWAP1 POP SWAP3 SWAP2 POP POP JUMP JUMPDEST PUSH1 0x0 DUP3 DUP3 MSTORE PUSH1 0x20 DUP3 ADD SWAP1 POP SWAP3 SWAP2 POP POP JUMP JUMPDEST PUSH1 0x0 PUSH2 0xECA DUP3 PUSH2 0xF7C JUMP JUMPDEST SWAP2 POP PUSH2 0xED5 DUP4 PUSH2 0xF7C JUMP JUMPDEST SWAP3 POP DUP3 PUSH2 0xEE5 JUMPI PUSH2 0xEE4 PUSH2 0x1031 JUMP JUMPDEST JUMPDEST DUP3 DUP3 DIV SWAP1 POP SWAP3 SWAP2 POP POP JUMP JUMPDEST PUSH1 0x0 PUSH2 0xEFB DUP3 PUSH2 0xF7C JUMP JUMPDEST SWAP2 POP PUSH2 0xF06 DUP4 PUSH2 0xF7C JUMP JUMPDEST SWAP3 POP DUP2 PUSH32 0xFFFFFFFFFFFFFFFFFFFFFFFFFFFFFFFFFFFFFFFFFFFFFFFFFFFFFFFFFFFFFFFF DIV DUP4 GT DUP3 ISZERO ISZERO AND ISZERO PUSH2 0xF3F JUMPI PUSH2 0xF3E PUSH2 0x1002 JUMP JUMPDEST JUMPDEST DUP3 DUP3 MUL SWAP1 POP SWAP3 SWAP2 POP POP JUMP JUMPDEST PUSH1 0x0 PUSH2 0xF55 DUP3 PUSH2 0xF5C JUMP JUMPDEST SWAP1 POP SWAP2 SWAP1 POP JUMP JUMPDEST PUSH1 0x0 PUSH20 0xFFFFFFFFFFFFFFFFFFFFFFFFFFFFFFFFFFFFFFFF DUP3 AND SWAP1 POP SWAP2 SWAP1 POP JUMP JUMPDEST PUSH1 0x0 DUP2 SWAP1 POP SWAP2 SWAP1 POP JUMP JUMPDEST PUSH1 0x0 JUMPDEST DUP4 DUP2 LT ISZERO PUSH2 0xFA4 JUMPI DUP1 DUP3 ADD MLOAD DUP2 DUP5 ADD MSTORE PUSH1 0x20 DUP2 ADD SWAP1 POP PUSH2 0xF89 JUMP JUMPDEST DUP4 DUP2 GT ISZERO PUSH2 0xFB3 JUMPI PUSH1 0x0 DUP5 DUP5 ADD MSTORE JUMPDEST POP POP POP POP JUMP JUMPDEST PUSH1 0x0 PUSH2 0xFC4 DUP3 PUSH2 0xF7C JUMP JUMPDEST SWAP2 POP PUSH32 0xFFFFFFFFFFFFFFFFFFFFFFFFFFFFFFFFFFFFFFFFFFFFFFFFFFFFFFFFFFFFFFFF DUP3 EQ ISZERO PUSH2 0xFF7 JUMPI PUSH2 0xFF6 PUSH2 0x1002 JUMP JUMPDEST JUMPDEST PUSH1 0x1 DUP3 ADD SWAP1 POP SWAP2 SWAP1 POP JUMP JUMPDEST PUSH32 0x4E487B7100000000000000000000000000000000000000000000000000000000 PUSH1 0x0 MSTORE PUSH1 0x11 PUSH1 0x4 MSTORE PUSH1 0x24 PUSH1 0x0 REVERT JUMPDEST PUSH32 0x4E487B7100000000000000000000000000000000000000000000000000000000 PUSH1 0x0 MSTORE PUSH1 0x12 PUSH1 0x4 MSTORE PUSH1 0x24 PUSH1 0x0 REVERT JUMPDEST PUSH32 0x4E487B7100000000000000000000000000000000000000000000000000000000 PUSH1 0x0 MSTORE PUSH1 0x32 PUSH1 0x4 MSTORE PUSH1 0x24 PUSH1 0x0 REVERT JUMPDEST PUSH1 0x0 DUP1 REVERT JUMPDEST PUSH32 0x4F776E61626C653A206E6577206F776E657220697320746865207A65726F2061 PUSH1 0x0 DUP3 ADD MSTORE PUSH32 0x6464726573730000000000000000000000000000000000000000000000000000 PUSH1 0x20 DUP3 ADD MSTORE POP JUMP JUMPDEST PUSH32 0x4C6F74746572792073657373696F6E2069732072756E6E696E672E0000000000 PUSH1 0x0 DUP3 ADD MSTORE POP JUMP JUMPDEST PUSH32 0x4572726F72207768656E2077697468647261772E000000000000000000000000 PUSH1 0x0 DUP3 ADD MSTORE POP JUMP JUMPDEST PUSH32 0x4C6F74746572792073657373696F6E2077617320656E6465642E000000000000 PUSH1 0x0 DUP3 ADD MSTORE POP JUMP JUMPDEST PUSH32 0x4572726F72207768656E206275726E2E00000000000000000000000000000000 PUSH1 0x0 DUP3 ADD MSTORE POP JUMP JUMPDEST PUSH32 0x4F776E61626C653A2063616C6C6572206973206E6F7420746865206F776E6572 PUSH1 0x0 DUP3 ADD MSTORE POP JUMP JUMPDEST PUSH32 0x5573657220646F6E277420616C6C6F7720746F2077697468647261772E000000 PUSH1 0x0 DUP3 ADD MSTORE POP JUMP JUMPDEST PUSH2 0x11E2 DUP2 PUSH2 0xF4A JUMP JUMPDEST DUP2 EQ PUSH2 0x11ED JUMPI PUSH1 0x0 DUP1 REVERT JUMPDEST POP JUMP JUMPDEST PUSH2 0x11F9 DUP2 PUSH2 0xF7C JUMP JUMPDEST DUP2 EQ PUSH2 0x1204 JUMPI PUSH1 0x0 DUP1 REVERT JUMPDEST POP JUMP INVALID LOG2 PUSH5 0x6970667358 0x22 SLT KECCAK256 MSTORE8 DUP10 0xF6 XOR 0xB6 SWAP9 0xA6 DUP13 0xAF 0xE2 0xD9 REVERT SWAP1 0x25 SUB JUMPDEST ORIGIN EXP 0xCA MSIZE PUSH5 0x88C5A69741 0xAD 0xBD SWAP13 0xCC 0x2E SWAP9 PUSH5 0x736F6C6343 STOP ADDMOD SMOD STOP CALLER "
				},
				"gasEstimates": {
					"creation": {
						"codeDepositCost": "933800",
						"executionCost": "infinite",
						"totalCost": "infinite"
					},
					"external": {
						"buyTicket()": "infinite",
						"finishLotterySession()": "28882",
						"owner()": "2544",
						"renounceOwnership()": "30374",
						"startLotterySession(uint256,uint256)": "infinite",
						"transferOwnership(address)": "30811"
					},
					"internal": {
						"_burnToken(uint256)": "infinite",
						"_clearBuyers()": "infinite",
						"_clearNumbers()": "infinite",
						"_pay(uint256)": "infinite"
					}
				},
				"methodIdentifiers": {
					"buyTicket()": "edca914c",
					"finishLotterySession()": "313c1376",
					"owner()": "8da5cb5b",
					"renounceOwnership()": "715018a6",
					"startLotterySession(uint256,uint256)": "99df1974",
					"transferOwnership(address)": "f2fde38b"
				}
			},
			"storageLayout": {
				"storage": [
					{
						"astId": 7,
						"contract": "contracts/MarketPlace.sol:MarketPlace",
						"label": "_owner",
						"offset": 0,
						"slot": "0",
						"type": "t_address"
					},
					{
						"astId": 899,
						"contract": "contracts/MarketPlace.sol:MarketPlace",
						"label": "running",
						"offset": 20,
						"slot": "0",
						"type": "t_bool"
					},
					{
						"astId": 907,
						"contract": "contracts/MarketPlace.sol:MarketPlace",
						"label": "buyerAddesses",
						"offset": 0,
						"slot": "1",
						"type": "t_array(t_address)dyn_storage"
					},
					{
						"astId": 913,
						"contract": "contracts/MarketPlace.sol:MarketPlace",
						"label": "buyers",
						"offset": 0,
						"slot": "2",
						"type": "t_mapping(t_address,t_array(t_struct(Ticket)904_storage)dyn_storage)"
					},
					{
						"astId": 916,
						"contract": "contracts/MarketPlace.sol:MarketPlace",
						"label": "numbers",
						"offset": 0,
						"slot": "3",
						"type": "t_array(t_uint256)dyn_storage"
					},
					{
						"astId": 921,
						"contract": "contracts/MarketPlace.sol:MarketPlace",
						"label": "lotteryNumbers",
						"offset": 0,
						"slot": "4",
						"type": "t_mapping(t_uint256,t_array(t_address)dyn_storage)"
					},
					{
						"astId": 923,
						"contract": "contracts/MarketPlace.sol:MarketPlace",
						"label": "luckyNumber",
						"offset": 0,
						"slot": "5",
						"type": "t_uint256"
					},
					{
						"astId": 925,
						"contract": "contracts/MarketPlace.sol:MarketPlace",
						"label": "minLotteryNumber",
						"offset": 0,
						"slot": "6",
						"type": "t_uint256"
					},
					{
						"astId": 927,
						"contract": "contracts/MarketPlace.sol:MarketPlace",
						"label": "maxLotteryNumber",
						"offset": 0,
						"slot": "7",
						"type": "t_uint256"
					},
					{
						"astId": 929,
						"contract": "contracts/MarketPlace.sol:MarketPlace",
						"label": "price",
						"offset": 0,
						"slot": "8",
						"type": "t_uint256"
					}
				],
				"types": {
					"t_address": {
						"encoding": "inplace",
						"label": "address",
						"numberOfBytes": "20"
					},
					"t_array(t_address)dyn_storage": {
						"base": "t_address",
						"encoding": "dynamic_array",
						"label": "address[]",
						"numberOfBytes": "32"
					},
					"t_array(t_struct(Ticket)904_storage)dyn_storage": {
						"base": "t_struct(Ticket)904_storage",
						"encoding": "dynamic_array",
						"label": "struct MarketPlace.Ticket[]",
						"numberOfBytes": "32"
					},
					"t_array(t_uint256)dyn_storage": {
						"base": "t_uint256",
						"encoding": "dynamic_array",
						"label": "uint256[]",
						"numberOfBytes": "32"
					},
					"t_bool": {
						"encoding": "inplace",
						"label": "bool",
						"numberOfBytes": "1"
					},
					"t_mapping(t_address,t_array(t_struct(Ticket)904_storage)dyn_storage)": {
						"encoding": "mapping",
						"key": "t_address",
						"label": "mapping(address => struct MarketPlace.Ticket[])",
						"numberOfBytes": "32",
						"value": "t_array(t_struct(Ticket)904_storage)dyn_storage"
					},
					"t_mapping(t_uint256,t_array(t_address)dyn_storage)": {
						"encoding": "mapping",
						"key": "t_uint256",
						"label": "mapping(uint256 => address[])",
						"numberOfBytes": "32",
						"value": "t_array(t_address)dyn_storage"
					},
					"t_struct(Ticket)904_storage": {
						"encoding": "inplace",
						"label": "struct MarketPlace.Ticket",
						"members": [
							{
								"astId": 901,
								"contract": "contracts/MarketPlace.sol:MarketPlace",
								"label": "Number",
								"offset": 0,
								"slot": "0",
								"type": "t_uint256"
							},
							{
								"astId": 903,
								"contract": "contracts/MarketPlace.sol:MarketPlace",
								"label": "Time",
								"offset": 0,
								"slot": "1",
								"type": "t_uint256"
							}
						],
						"numberOfBytes": "64"
					},
					"t_uint256": {
						"encoding": "inplace",
						"label": "uint256",
						"numberOfBytes": "32"
					}
				}
			},
			"userdoc": {
				"kind": "user",
				"methods": {},
				"version": 1
			}
		}
	}
}